:020000040800F2
:1000000000070020CD010008690700085907000813
:1000100065070008690300080513000800000000D8
:100020000000000000000000000000008D0B000830
:1000300083030008000000001F080008750C00087A
:10004000091300081D080008D90C0008830B0008DC
:10005000CD040008D50A00088503000889030008BC
:10006000D9030008DB030008DD0300086D03000866
:100070006F0300087103000873030008750300088C
:10008000770300087903000865030008E70100080A
:10009000E7010008E7010008E7010008DF030008A6
:1000A000DB0C0008E10C0008DF0C0008DD0C000888
:1000B000E30C0008F10C0008810E00085F0700083F
:1000C0005D0700086307000861070008870B000848
:1000D000890B0008291000089510000897100008E7
:1000E00087030008810B000803130008890E00082D
:1000F0008F0E00088D0E00088B0E000867030008A5
:1001000005050008850B0008830E00088B0B00080E
:10011000890F00088B0F0008850E0008870E000865
:100120007B0300087D0300087F03000881030008AB
:1001300000F002F800F03AF80AA090E8000C8244BF
:100140008344AAF10107DA4501D100F02FF8AFF29C
:10015000090EBAE80F0013F0010F18BFFB1A43F0A5
:1001600001031847C8200000E8200000103A24BF0F
:1001700078C878C1FAD8520724BF30C830C144BF0C
:1001800004680C607047000000230024002500264E
:10019000103A28BF78C1FBD8520728BF30C148BFEA
:1001A0000B6070471FB51FBD10B510BD00F0AAF859
:1001B0001146FFF7F7FF01F0E9F800F0C8F803B4C3
:1001C000FFF7F2FF03BC01F0A0F8000009488047E8
:1001D00009480047FEE7FEE7FEE7FEE7FEE7FEE729
:1001E000FEE7FEE7FEE7FEE704480549054A064B41
:1001F00070470000790C0008310100080001002060
:100200000007002000030020000300207047032A9D
:1002100040F2308010F0030C00F0158011F8013B23
:10022000BCF1020F624498BF11F801CB00F8013B0A
:1002300038BF11F8013BA2F1040298BF00F801CBCE
:1002400038BF00F8013B11F0030300F02980083AA1
:10025000C0F0088051F8043B083A51F804CBA0E8FC
:100260000810F5E7121D5CBF51F8043B40F8043B51
:10027000AFF30080D20724BF11F8013B11F801CB86
:1002800048BF11F8012B24BF00F8013B00F801CB57
:1002900048BF00F8012B70477047704770477047A0
:1002A00010B5203AC0F00B80B1E81850203AA0E811
:1002B0001850B1E81850A0E81850BFF4F5AF5FEA45
:1002C000027C24BFB1E81850A0E8185044BF18C9F8
:1002D00018C0BDE810405FEA827C24BF51F8043B9F
:1002E00040F8043B08BF7047D20728BF31F8023BF3
:1002F00048BF11F8012B28BF20F8023B48BF00F887
:10030000012B7047754600F029F8AE460500694696
:10031000534620F00700854618B020B5FFF764FF6C
:10032000BDE820404FF000064FF000074FF00008F6
:100330004FF0000B21F00701AC46ACE8C009ACE877
:10034000C009ACE8C009ACE8C0098D467047044656
:10035000AFF300802046FFF732FF000000487047EF
:100360009C0000207047704700BFFEE77047704751
:1003700070477047704770477047704770477047C5
:10038000704770477047704710B5FF21114800F063
:10039000B4FF00BF80210F4800F0E2FE0028F9D032
:1003A000AA210C4800F0A9FF00BF8021094800F0F5
:1003B000D7FE0028F9D05221064800F09EFF00BF6A
:1003C0008021044800F0CCFE0028F9D0022000F083
:1003D0002DF810BD003801407047704770477047D6
:1003E0000EB50121084600F03BFA0121084600F055
:1003F000BDF80220019000208DF808000C208DF837
:10040000090001208DF80A0001A800F015F8072066
:100410008DF8000002208DF801008DF80200012007
:100420008DF80300684600F0B5F90EBD014908607B
:100430007047000014040140002123498279002AFA
:100440003AD00A46126803689A430B461A600A1D9E
:10045000126803689A430B1D1A60027911440A68F6
:1004600003681A430A60184A0832126803689A43FC
:10047000154B08331A601A1D126803689A43124B11
:100480000C331A604279102A0ED11A1F12680368C1
:100490001A430D4B08331A601A1D126803681A4379
:1004A000094B0C331A600DE00749427911440A6880
:1004B00003681A430A6005E0027911440A68036878
:1004C0009A430A6070470000000401407047000032
:1004D0000549096821F01001034A116011460968B5
:1004E00001431160704700000020024001460020D7
:1004F000034A106800F0380008431060704700009D
:10050000002002407047000008B50121082000F0DB
:10051000A7F90121202000F0A3F90121042000F017
:100520009FF90F20ADF8000010208DF80300032084
:100530008DF8020069460B4800F038F847F20101D7
:10054000094800F007F94FF4E040ADF80000102032
:100550008DF8030002208DF802006946024800F081
:1005600025F808BD00140140000C014030B5002200
:100570008B071C0F0F2303FA04F20B4B8C1053F85C
:1005800024309343084C8D1044F8253023468C10BA
:1005900053F824308C07240F00FA04F42343024C50
:1005A0008D1044F8253030BD080001402DE9F041A0
:1005B000024600250026002000230024002791F891
:1005C00003C00CF00F0591F803C01CF0100F03D00E
:1005D00091F802C04CEA050591F800C0BCF1000F8B
:1005E00031D0146800202BE04FF0010C0CFA00F31E
:1005F000B1F800C00CEA03069E4220D183004FF000
:100600000F0C0CFA03F7BC4305FA03FC4CEA040494
:1006100091F803C0BCF1280F06D14FF0010C0CFA81
:1006200000FCC2F814C00AE091F803C0BCF1480F06
:1006300005D14FF0010C0CFA00FCC2F810C0401CB0
:100640000828D1D31460B1F800C0BCF1FF0F34DD2D
:10065000546800202EE000F1080C4FF0010808FA61
:100660000CF3B1F800C00CEA03069E4221D18300CE
:100670004FF00F0C0CFA03F7BC4305FA03FC4CEAED
:10068000040491F803C0BCF1280F05D100F1080C57
:1006900008FA0CF8C2F8148091F803C0BCF1480FB6
:1006A00007D100F1080C4FF0010808FA0CF8C2F865
:1006B0001080401C0828CED35460BDE8F0810000B3
:1006C000F0B50A46002300240021002500F0004672
:1006D000B6F1004F02D11D4EF16901E01B4E716869
:1006E000C0F3034583B200F44016B6F5401F08D1AD
:1006F00021F07061154E766826F07066134F7E60AB
:1007000012E000F48016B6F5801F06D1032606FA23
:1007100005F4A14341F0706106E0460D360103FA8D
:1007200006F6B14341F0706122B1460D360103FA7D
:1007300006F6314300F00046B6F1004F02D1034EF9
:10074000F16101E0014E7160F0BD00000000014068
:10075000416170470161704700BFFEE77047704715
:100760007047704700BFFEE7704708B54FF4A060C0
:1007700000F04AF825208DF8000000208DF80100D7
:1007800001208DF802008DF80300684600F002F8A1
:1007900008BD000070B5002100230F22C4780CB3FF
:1007A000164C246804F4E064C4F5E064210AC1F145
:1007B0000403CA40447804FA03F1847814402143C6
:1007C00009010F4C0678A155047804F01F05012497
:1007D000AC4005786D114FF0E02606EB8505C5F8B5
:1007E000004109E0047804F01F050124AC40054DE8
:1007F0000678761145F8264070BD00000CED00E04B
:1008000000E400E080E100E002490143024A116097
:10081000704700000000FA050CED00E070477047DB
:1008200029B1064AD2690243044BDA6104E0034A63
:10083000D2698243014BDA61704700000010024028
:1008400029B1064A12690243044B1A6104E0034AC3
:1008500012698243014B1A61704700000010024088
:1008600029B1064A92690243044B9A6104E0034AA3
:1008700092698243014B9A61704700000010024068
:1008800029B1064AD2680243044BDA6004E0034A05
:10089000D2688243014BDA607047000000100240CA
:1008A00010B500F02FF84FF4803000F0EDF800F0B4
:1008B0004BF90446012C24D11020FFF709FE022039
:1008C000FFF714FE002000F0D3F8002000F010F92C
:1008D000A00200F001F94FF4E011200400F01AF931
:1008E000012000F011F900BF392000F09BF800282A
:1008F000FAD0022000F01CF900BF00F0B1F808287F
:10090000FBD110BD0F48006840F001000D490860A0
:10091000084640680C4908400A4948600846006893
:100920000A490840074908600846006820F480200A
:1009300008600846406820F4FE0048604FF41F003D
:1009400088607047001002400000FFF8FFFFF6FECD
:1009500030B500210022002400232D4D6D6805F0E4
:100960000C0121B1042905D0082923D105E0294D26
:10097000056022E0274D05601FE0254D6D6805F4F8
:100980007012234D6D6805F48034022505EB924208
:100990001CB9214D554305600BE01D4D6D6815F4E4
:1009A000003F03D01C4D5543056002E0194D5543EF
:1009B000056002E0174D056000BF00BF144D6D6873
:1009C00005F0F0010909154D6B5C0568DD404560D7
:1009D0000F4D6D6805F4E061090A104D6B5C4568C8
:1009E000DD4085600A4D6D6805F46051C90A0B4D04
:1009F0006B5C4568DD40C560054D6D6805F44041A0
:100A0000890B074D6B5CC568B5FBF3F5056130BD1F
:100A10000010024000127A0000093D00280000206A
:100A20003800002010B501460022002300204A11A2
:100A3000012A02D1094C236806E0022A02D1074CA0
:100A4000236A01E0054C636A01F01F02012494400F
:100A50001C4201D0012000E0002010BD0010024027
:100A60000248406800F00C0070470000001002408F
:100A700001460020034A506820F0F000084350600F
:100A800070470000001002401149096821F48031CC
:100A90000F4A11601146096821F480211160B0F5F8
:100AA000803F03D0B0F5802F0ED106E008490968D9
:100AB00041F48031064A116007E00549096841F4B4
:100AC000A021034A116000E000BF00BF7047000092
:100AD000001002407047000001460020034A5068A1
:100AE00020F4E060084350607047000000100240AE
:100AF00001460020034A506820F4605040EAC100DB
:100B000050607047001002400149086670470000BD
:100B10000000424202460020044B586820F47C103A
:100B200042EA01031843014B58607047001002402D
:100B300001460020034A506820F00300084350603B
:100B4000704700000010024038B5002000900024DB
:100B5000002500BF3120FFF765FF05460098401CC7
:100B600000900098B0F5A06F01D0002DF2D0312098
:100B7000FFF758FF08B1012400E00024204638BDEB
:100B8000704770477047704770477047704710B59F
:100B900000F002F810BD00000CB50020019000909C
:100BA0003248006840F480303049086000BF2F4868
:100BB000006800F4003000900198401C01900098FB
:100BC00018B90198B0F5A06FF1D12848006810F469
:100BD000003F02D00120009001E00020009000982A
:100BE000012842D12248006840F0100020490860E6
:100BF0000846006820F0030008600846006840F0DE
:100C00000200086019484068184948600846406872
:100C100048600846406840F4806048600846406884
:100C200020F47C1048600846406840F4E8104860B2
:100C30000846006840F08070086000BF0B480068FC
:100C400010F0007FFAD00948406820F003000749FF
:100C500048600846406840F00200486000BF034812
:100C6000406800F00C000828F9D10CBD00100240CB
:100C7000002002407047000010B51348006840F0A3
:100C800001001149086008464068104908400E49B3
:100C90004860084600680E4908400B49086008464D
:100CA000006820F4802008600846406820F4FE00B8
:100CB00048604FF41F008860FFF769FF4FF0006045
:100CC0000449086010BD0000001002400000FFF859
:100CD000FFFFF6FE08ED00E0704770477047704771
:100CE000704710B50121880700F0E1F810BD000041
:100CF00010B501213E4800F0DAF8002877D0012134
:100D00003B4800F0C5F83B480068401C3949086082
:100D10000846006838490968884204DD40213748A0
:100D2000FFF716FD03E040213448FFF713FD31487B
:100D3000006833490968884204DD10212F48FFF715
:100D400007FD03E010212D48FFF704FD2948006846
:100D50002C490968884204DD08212B48FFF7F8FC7C
:100D600003E008212848FFF7F5FC224800682749DE
:100D70000968884204DD02212348FFF7E9FC03E00B
:100D800002212148FFF7E6FC1A480068204909685B
:100D9000884205DD4FF400511B48FFF7D9FC04E001
:100DA0004FF400511848FFF7D5FC12480068194964
:100DB0000968884205DD4FF400411748FFF7C8FC79
:100DC00004E04FF400411448FFF7C4FC09480068F0
:100DD000B0F5FA6F0BDB0020064908600F48006889
:100DE00010B9012001E002E000200C49086010BDAC
:100DF0000004004000000020040000200008014022
:100E0000080000200C00002000100140100000200D
:100E10001400002018000020000C014088812242AC
:100E20007FB506460C46154601210220FFF7F8FC67
:100E3000ADF80860ADF804400020ADF80A00ADF848
:100E4000060001A90D4800F04DF8012211460B489B
:100E500000F03EF81D208DF8000000208DF8010004
:100E6000E8B28DF8020001208DF803006846FFF714
:100E700091FC0121014800F00EF87FBD0004004004
:100E800070477047704770477047704770477047AA
:100E9000CA430282704721B1028842F001020280F7
:100EA00004E002884FF6FE731A400280704730B5A6
:100EB0000246002000230024158A05EA01039589D3
:100EC00005EA010413B10CB1012000E0002030BD9F
:100ED0001AB183890B43838102E083898B43838129
:100EE00070470000002202881D4B98420ED01D4B17
:100EF00098420BD0B0F1804F08D01B4B984205D0E0
:100F00001A4B984202D01A4B984204D14FF68F7375
:100F10001A404B881A43174B984207D0164B9842F9
:100F200004D04FF6FF431A40CB881A4302808B88C7
:100F300083850B8803850A4B98420BD0094B984256
:100F400008D00E4B984205D00D4B984202D00D4B65
:100F5000984201D10B7A03860123838270470000F7
:100F6000002C014000340140000400400008004013
:100F7000000C004000100040001400400040014000
:100F800000440140004801407047704700B585B0FB
:100F900001210520FFF764FC01218803FFF760FCB5
:100FA0001F4800F08FF84FF40070ADF810001820C3
:100FB0008DF8130003208DF8120004A91948FFF7DB
:100FC000F5FA4FF48060ADF8100048208DF813005A
:100FD00004A91448FFF7EAFA4FF4E130009000202A
:100FE000ADF80400ADF80600ADF80800ADF80C004F
:100FF0000C20ADF80A006946094800F00DF90122FD
:1010000040F22551064800F0E2F80121044800F0C2
:101010004CF84021024800F03FF805B000BD000048
:10102000003801400008014010B540F22551144835
:1010300000F0A3F810B3124800F05AF91149124A0F
:10104000127888541048007820B90846007855284E
:1010500000D010BD0C480078401C0B4908700846B1
:1010600000780F280AD10F2206490848FFF7CFF869
:1010700000200549087001200549087000BFE8E715
:10108000003801408E00002024000020780000205D
:10109000250000207047704701F40072B2F5007F10
:1010A00000D100BFCA430280704721B1828942F457
:1010B0000052828104E082894DF6FF731A408281DA
:1010C0007047000010B504462048844209D1012130
:1010D0008803FFF7D5FB00214FF48040FFF7D0FBDA
:1010E00032E01B48844209D101214804FFF7A8FBE4
:1010F00000214FF40030FFF7A3FB25E015488442A0
:1011000009D101218804FFF79BFB00214FF48020C7
:10111000FFF796FB18E01048844209D10121C8046A
:10112000FFF78EFB00214FF40020FFF789FB0BE057
:101130000A48844208D101210805FFF781FB0021FC
:101140004FF48010FFF77CFB10BD00000038014019
:101150000044004000480040004C00400050004067
:1011600002460020B1F5007F00D100BF13880B427A
:1011700001D0012000E00020704770B50246002435
:10118000002300250020A1F510666A3E00D100BFB3
:10119000C1F3421501F01F03012606FA03F3012DE6
:1011A00002D19689334006E0022D02D1168A3340DF
:1011B00001E0968A33400C12012606FA04F41688E0
:1011C000344013B10CB1012000E0002070BDF0B537
:1011D00003460024002600250020A1F510676A3F81
:1011E00000D100BF1846C1F3421401F01F060127C9
:1011F00007FA06F5012C01D10C3004E0022C01D1D4
:10120000103000E014301AB107682F43076002E085
:101210000768AF430760F0BD2DE9F04786B005468B
:101220000E460024A24600BFA1460027B08900B1A7
:1012300000BF2F462C8A4CF6FF700440F088044310
:101240002C82AC894EF6F3100440B08831890843F3
:10125000718908430443AC81AC8A4FF6FF400440D7
:10126000B0890443AC8201A8FFF772FB1F48874294
:1012700002D1DDF810A001E0DDF80CA0A88910F47F
:10128000004F08D00AEBCA0000EB0A103168490091
:10129000B0FBF1F807E00AEBCA0000EB0A10316876
:1012A0008900B0FBF1F86420B8FBF0F004012009DC
:1012B000642101FB1089A88910F4004F08D0322066
:1012C00000EBC900B0FBF1F000F00700044308E0B8
:1012D000322000EB09106421B0FBF1F000F00F00A8
:1012E00004432C8106B0BDE8F087000000380140BF
:1012F00001468888C0F308007047C1F30802828065
:101300007047704700BFFEE77047014600BF704757
:101310004FF0E021096921F004014FF0E022116152
:10132000C21700EB5272C2F3C702074B1A7019467C
:10133000097801EB4102C2EBC1114FF6FF7202EADC
:10134000C101024A118070473C0000203E0000208D
:1013500001460D4A12884A434FF0E0235A610022A9
:101360009A6101221A6100BF4FF0E022106910F06B
:10137000010F02D010F4803FF6D000224FF0E0239E
:101380001A619A61704700003E00002086B0FFF7A6
:1013900087FAFFF7B9F84820FFF7BAFFFFF7E5F93A
:1013A000FFF7F4FD012247210920FFF739FDFFF780
:1013B00017F8C820FFF7CCFF01212C20FFF750FAC7
:1013C00001211020FFF74CFA01218E48FFF778F930
:1013D0004020ADF8140010208DF8170003208DF880
:1013E000160005A98848FFF7E1F840218648FFF775
:1013F000B1F91020ADF8140005A98348FFF7D6F81D
:1014000010218148FFF7A4F94AF20A00ADF8140050
:1014100010208DF8170003208DF8160005A97B48D1
:10142000FFF7C4F84AF20A017848FFF793F904205D
:10143000ADF8140010208DF8170003208DF8160069
:1014400005A97348FFF7B2F804217148FFF782F944
:101450004FF40040ADF8140010208DF81700032061
:101460008DF8160005A96B48FFF7A0F80220ADF82B
:10147000140048208DF8170005A96648FFF796F874
:10148000BEE0654800780028FAD00F22634901A821
:10149000FEF7BDFE002060490870604800785528BE
:1014A0007ED15E4840785328FAD19DF806109DF809
:1014B000072041EA022108B200F02FFB80460022FB
:1014C000574B00F0A3F906460022564B00F03CFBB8
:1014D000044600F0C1F8544908609DF808109DF8D2
:1014E000092041EA022108B200F017FB80460022E1
:1014F0004B4B00F08BF9064600224A4B00F024FBD0
:10150000044600F0A9F8484948609DF80A109DF883
:101510000B2041EA022108B200F0FFFA0646002241
:101520003F4B00F073F9044600223E4B00F00CFBE9
:10153000804600F091F83C498860084681683B4845
:1015400000F022FD044600F081FD3949086036496B
:10155000086800F0EDFC80464FF03332354B00F068
:10156000F3FA06460022344B00F0A8F8044600F0D7
:10157000A5FA324908602C49086800F0D9FC804679
:1015800000222F4B00F0E0FA064600222A4B00F022
:10159000D9FB044600F092FA2A490860224800E08C
:1015A00012E00168214800F0CBFD044600F04EFD3A
:1015B000254908601C4841681C4800F0E5FC0446C9
:1015C00000F044FD214908601448007AAA2817D188
:1015D0009DF80D0000F056FD1D490860086800F0F8
:1015E000A7FC80460022164B00F0AEFA0646002209
:1015F000114B00F063F8044600F060FA15490860EA
:101600003FE70000000230000008014000100140E8
:1016100000140140000C014025000020780000204B
:101620000000E040008066405800002000001643A3
:10163000040000203333D33F00C062400800002084
:101640000000E03F0C0000201000002014000020EB
:10165000640000201800002021F00042A2F1605236
:10166000B2F5801F01F0004328BFD2F17F6C0BD987
:101670005FEA001C43EAC20242EB507018BF704799
:1016800028BF20F001007047B2F5801FBCBF18468C
:1016900070474FEA410C1CF5001F02D2084600F0CB
:1016A0004ABD70B500F0FAFA00000089FFF7F6BFF6
:1016B0004FF00040A0F580007047000010B591EA9F
:1016C000030F48BF83F0004300F15083841A71EB8D
:1016D000030C05D2121943EB0C03001B61EB0C0148
:1016E000DFF824E14FEA1154A4EB135C1EEA430F28
:1016F00018BF9EEA445F73D023EA0E03DCF1200E8C
:1017000021EA045143F4801332D322FA0CFE10EB89
:101710000E0023FA0CFE41EB0E01CCF1200E03FA71
:101720000EFE10EB0E0051F10001B1F5801FCCF15F
:10173000200E32D201EB045112FA0EF2BDE8104035
:1017400058BF7047401C38BF5FEA420218BF70475D
:10175000002814BF20F0010041F100014FEA4103CD
:1017600013F5001F38BF7047A1F1C04100F0E4BA83
:10177000012A43EB0302ACF1200CDCF11F0E32BF57
:101780004FF0000E23FA0CF310EB030041EB045171
:10179000B4EB115FD0D0A1EB045101F580114908E1
:1017A0005FEA300001EB04510ED350F1000038BF66
:1017B00012FA0EFE08D1BDE81040C9E7401C38BF40
:1017C0005FEA4202CAD1C3E7BDE810404FEA4103D5
:1017D00013F5001F38BF7047A1F1C04100F0ACBA4B
:1017E0009EEA445F08D011EA5E0FBDE8104004BFD6
:1017F00001F0004100207047BDE8104070B500F0D6
:101800004DFA00BF64FBBE3E0000E0FF2DE9C04181
:1018100030B4DFF8A0C23CEA111418BF3CEA13143C
:1018200000F0EC8081EA03051CEA111444EAD57447
:1018300018BF1CEA131500F0C780A4EB05044FF095
:10184000004545EAC12145EAC32341EA505143EA34
:10185000525304F17F74994204F500344FEAC020DA
:101860004FEAC22208BF904200F09C804FEA136505
:101870000FF24016765D4FEA134506FB05F7C7F1F8
:10188000807706FB07F74FEAD737A7FB0368764256
:10189000C8F58038A7FB06CE38BFA8F1010807FBC2
:1018A00008E64FF0000EA6FB028CE6FB03CEDCF14F
:1018B000000CCEF1004E38BFAEF1010EA6FB0C5865
:1018C0004FF000074FF00005E6FB0E87A1FB08C6AE
:1018D000A0FB07CE16EB0E0645F10005E1FB076500
:1018E00015F1E04E7EBFA4F580345FEA46066D41F7
:1018F00016F1800745F100054FEA17274FEA066603
:1019000047EA0567A6F1DE46B6F1805F4FEA152586
:101910001FD9384624F0010C05EBC471BCF1FE6FF1
:1019200001EB0C1102D8F0BCBDE8008124425CBF81
:1019300001F5801E9EEAC47F02D4F0BCBDE80081A0
:10194000244238D4F0BCA1F1C041BDE8004100F010
:10195000F3B94FEAD22242EA43524FEAD323A7FB1C
:1019600002864FEAD02040EA415007FB03661EEA98
:101970000E0F4FEAD12105FB026658BFA6EB0056B9
:10198000B6EB00564FEA520E4EEAC37E18EB0E0E2F
:1019900056EB530EBDD518EB02085E417F1C55F186
:1019A0000005B6E74FF480154FF000074FF0000632
:1019B0004FF00008ADE7F0BC4FF0000001F1C0416E
:1019C00001F00041BDE8008111EA0C1F0CEA13157B
:1019D00000D00CE013EA0C1F00F025804FF000004F
:1019E000F0BC81EA030101F00041BDE80081F0BCD8
:1019F000BDE8004181EA030100F09EB9F0BCBDE8FA
:101A0000004170B500F04AF9097EFC3E00F007B8CD
:101A100081EA03014FF0000001F00041704781EAC4
:101A2000030100F089B9F0BCBDE800414FF00000AF
:101A300021497047FFFDFBF9F7F5F4F2F0EEEDEB0D
:101A4000E9E8E6E4E3E1E0DEDDDBDAD8D7D5D4D3BC
:101A5000D1D0CFCDCCCBCAC8C7C6C5C4C2C1C0BF08
:101A6000BEBDBCBBBAB9B8B7B6B5B4B3B2B1B0AF0E
:101A7000AEADACABAAA9A8A8A7A6A5A4A3A3A2A1F2
:101A8000A09F9F9E9D9C9C9B9A99999897979695AD
:101A900095949393929191908F8F8E8E8D8C8C8B49
:101AA0008B8A8989888887878685858484838382D1
:101AB000828181800000FF070000F87F4FEA410328
:101AC0004FEA5353A3F58063D3F11E03C8BFD3F18C
:101AD000210C0CDD4FF0004242EAC12242EA505292
:101AE00032FA03FC8CEAE17CACEBE1707047102B1E
:101AF000C4BF0020704703F5787CBCF1FF3F04D0E1
:101B00006FF0004282EA2100704770B500F0C6F81D
:101B10004992248000207047F2E710F0004248BF4D
:101B20004042B0FA80F310FA03F10AD0C3F11D036A
:101B300003F580634FEA415002EB035202EBD121DF
:101B400070474FF000007047DFF848C170B51CEADD
:101B5000111E1EBF1CEA13159EEA0C0F95EA0C0F0E
:101B600000F06F8081EA030423EA4C134EEAD47E2E
:101B700021EA4C1141F4801143F48013AE44A1FBDF
:101B8000024CA0FB0365AEF17F7E361955EB0C05C8
:101B9000A1FB034C4CF10003A0FB021C16EB0C064E
:101BA000654153F10003094218BF46F0010613F4E2
:101BB000007F0BD14FEA03314FEA0530340341EA8D
:101BC000155140EA16506FF003020AE04FEAC321B4
:101BD0004FEAC520F40241EA555140EA56506FF0F1
:101BE000020202EB2E4201EB025585EACE710AD0C9
:101BF0005FEA440C18BF24F0004450F1000041F1AA
:101C0000000120EAD47040F2FE7C624500D270BD33
:101C1000A84214BF4FF080444FF04044002E08BF4C
:101C20000024BEF1806FA8BFA1F1C041BDE87040A3
:101C300080F282804FF0000001F1C04101F00041CC
:101C400070479EEA0C0F0CEA131518BF95EA0C0FAB
:101C500006D04FF0000081EA030E0EF0004170BD87
:101C600000F01CF88900013E00F007B800F009B848
:101C70004FEA430C5FEA5C5C08D081EA030100F0A4
:101C80005BB84FEA410C5FEA5C5CF6D14FF00000B4
:101C9000014970470000FF070000F87F0EF1020EB7
:101CA0002EF0030E5EF8046B364205D4012A43EB96
:101CB000030515F5001F12D8012841EB010C1CF596
:101CC000001F0CD80ED14FEAD17C15F5001F0CEB8C
:101CD0004C0C0CF1020C08BF4CEBD37C04E04FF031
:101CE000080C01E04FEAD37C0CEB4C0526FA05F614
:101CF00006F00706B6F1040C06D20EEB860CBDE822
:101D000070404CF0010C6047DFE80CF0090B020258
:101D10004FF000414FF00000A1F5002170BD1946C1
:101D20001046012851EB010418BFD4F5001484BFFC
:101D3000002001F0004170BD0808A0F500114FEA35
:101D40003101704791EA030F10B581F000413FF572
:101D5000BDAC83F0004300F009B8000010B591EA73
:101D6000030F48BF83F000433FF5B0AC841A71EB1A
:101D7000030C07D212198CF0004C43EB0C03001B30
:101D800061EB0C01DFF8A4E14FEA1154A4EB135C02
:101D90001EEA430F18BF9EEA445F00F0B08023EABA
:101DA0006E03524221EA0451C3EB6E0338BF5B1E3F
:101DB000DCF1200E25D322FA0CFE10EB0E0043FAC4
:101DC0000CFE41EB0E01CCF1200E03FA0EFE10EBDF
:101DD0000E0051F10001CCF1200E29D412FA0EF2BE
:101DE00001EB0451BDE8104058BF7047401C1CBFB8
:101DF000B2F1004F704700280CBF491C20F00100D1
:101E0000704712EB020E43EB030218BF4FF0010EB6
:101E10004EEA4202ACF1200CDCF11E0E54D943FA1A
:101E20000CFE10EB0E0051F1FF31CCF11E0ED5D59A
:101E30000EF1010E12FA0EFE404141EB010101EBE1
:101E4000445C5FEA5C5C10D910EBDE7001EB04517E
:101E500038BFBEF1004FBDE8104018BF70470028E2
:101E60000CBF491C20F00100704730D24FEAD42C3F
:101E700011F5001124F400641BD0B1FA81F20B3A81
:101E8000A41AA41ED2F12003914030FA03F319439F
:101E9000904001EBCC71002C01EB0451BDE81040E7
:101EA000A8BF704701F1C0414FF0000001F00041B0
:101EB0007047B0FA80F310FA03F100D110BDE41AB4
:101EC000173C4805C90AE4E701EB045110BD49106D
:101ED00001EB0451BDE810404FEA300002E04FF042
:101EE000000170474A0008BF0042F8D0B2F5001F59
:101EF00028BF704701F000414FF0000070479EEA94
:101F0000445F07D011EA5E0FBDE8104004BF002116
:101F100000207047BDE8104070B5FFF7BFFE00BF5E
:101F200040DFF63E83F00041104670470000E0FFBE
:101F300043004FEAD30C4FEA3C0C43401FBF40071D
:101F40000CF1605113F0FE4F70471CF0006F03D18D
:101F500000200CF0004170470CF0004343EA507041
:101F600010B540EACC0000F0A0F800BF00000092DD
:101F70004FEA0001FFF7E0BE4FF000414FF00000D4
:101F8000A1F500217047000090EA010F48BF81F0E1
:101F9000004100F1DC80421A3CBF801A89184FEAE8
:101FA000D0524FF07F4C1CEA410FA2EBD15318BF27
:101FB0009CEA026F00F03B804FF0004C4CEA00209E
:101FC0004CEA012121FA03FC10EB0C0C1ED202F1A9
:101FD000FF325FEA1C2040EBC25038BF70471CF054
:101FE0007F0F4FEA400C18BFBCF17F4F38BF7047DE
:101FF000C3F12003994008BF20F00100BCF17F4FDE
:1020000038BF7047A0F1C04000F095B84FEA3C00DF
:10201000000A40EBC25028BF1CF0FF0F4FEA400CF3
:10202000E6D018BFBCF17F4F38BF7047EAE79CEAA3
:10203000026F05D010EA5C0F08BF00F00040704747
:1020400010B500F032F800BF64FBBE3E41000B0E3D
:10205000D3F19E0208D950F400034FEA032323FA78
:1020600002F048BF4042704710B500F01EF800BFB4
:1020700049922480002070476FF0004282EA2000DD
:1020800070470000B0FA80F310FA03F2C3F19D0329
:102090000AD0D90501EB1220530638BF704700F172
:1020A000010008BF20F0010070470EF1020E2EF073
:1020B000030E5EF8044B244204D44FEA4102B2F10D
:1020C0007F4F11D84FEA4003B3F17F4F0CD80ED1A8
:1020D0004FEAD07CB2F17F4F0CEB4C0C0CF1020CB0
:1020E00008BF4CEBD17C04E04FF0080C01E04FEA54
:1020F000D17C0CEB4C0324FA03F404F00704B4F194
:10210000040C06D20EEB840CBDE810404CF0010C20
:102110006047DFE80CF0070802024FF00040A0F52E
:10212000800010BD0846420018BFD2F1807288BFFF
:1021300000F0004010BDFF2141EAD050C0057047BB
:1021400090EA010F48BF81F000413FF524AF421AE9
:1021500004D882F00042A0EB020011444FEAD052B2
:102160004FF07F4C1CEA410FA2EBD15318BF9CEA01
:10217000026F4AD04FF0004C4CEA00204CEA01219B
:1021800021FA03FCB0EB0C0C0FD412F0FE0F36D08A
:102190005FEA4C001DD5001240EBC25038BF7047BB
:1021A0001CF03F0F18BF70470BE0A2F101025FEA7D
:1021B0001C2040EBC25038BF70471CF07F0F18BF87
:1021C0007047C3F12003994014BF401E20F0010066
:1021D000704780084FEA122308BF7047B0FA80FCAE
:1021E000A2EB0C02CCF1280C60FA0CF093EA122F4F
:1021F00004BF00EBC25070474FEAC3707047130A28
:102200005FEADC1008BF7047F6E79CEA026F04D073
:1022100010EA5C0F08BF0020704710B5FFF745FFBC
:1022200040DFF63E81F00040704700004C2200087D
:1022300000000020400000006C0100088C22000813
:1022400040000020C00600008801000800000000D7
:102250009600000096000000960000009600000026
:102260009600000096000000000000000000000042
:10227000000000000000000001020304010203044A
:0C22800006070809020406080000000020
:0400000508000131BD
:00000001FF
