:020000040800F2
:10000000601B0020158500080D0700080F07000879
:1000100013070008170700081B070008000000006E
:100020000000000000000000000000001F070008A2
:100030002107000800000000AF840008014D0008FF
:100040002F8500082F8500082F8500082F850008C0
:100050002F8500082F8500082F8500082F850008B0
:100060002F8500082F8500082F8500082F850008A0
:100070002F8500082F8500082F8500082F85000890
:100080002F8500082F8500082F8500082F85000880
:100090002F8500082F8500082F8500082F85000870
:1000A0002F8500082F8500082F8500082F85000860
:1000B0002F8500082F8500082F8500082F85000850
:1000C0002F8500082F8500082F8500082F85000840
:1000D0002F850008BD4E00082F8500082F850008D9
:1000E0002F8500082F8500082F8500082F85000820
:1000F0002F8500082F8500082F8500082F85000810
:100100002F8500082F8500082F8500082F850008FF
:100110002F8500082F8500082F8500082F850008EF
:100120002F8500082F8500082F8500082F850008DF
:1001300000F002F800F042F80AA090E8000C8244B7
:100140008344AAF10107DA4501D100F037F8AFF294
:10015000090EBAE80F0013F0010F18BFFB1A43F0A5
:100160000103184704CD000024CD0000103A24BF3D
:1001700078C878C1FAD8520724BF30C830C144BF0C
:1001800004680C607047000000230024002500264E
:10019000103A28BF78C1FBD8520728BF30C148BFEA
:1001A0000B607047642908F04382782908F07C824C
:1001B000002070471FB51FBD10B510BD08F0D6FC5C
:1001C0001146FFF7F7FF00F0FBF908F0F4FC03B469
:1001D000FFF7F2FF03BC04F013FE000010B500228D
:1001E000002017E000210AE001EB8103FE4C04EB44
:1001F000430333F8103013449AB24B1CD9B20A2986
:10020000F2DB0A2392FBF3F3F84C24F810300022BF
:10021000431CD8B20528E5DB10BD44E05520F44965
:10022000087053204870AA200872BB208873F148D8
:1002300000788870F0480078C870F048007808713D
:10024000EF4800784871EF4800788871EE480078F0
:10025000C8710020ED4908600EE0E448EB490968E8
:1002600010F81110E24AE948006809301154E748D3
:100270000068401CE5490860E44800680528ECDB9C
:100280000020E24908600AE0D949E04A1268885C27
:1002900004F078FCDD480068401CDC490860DB485D
:1002A00000680F28F0DBB9E746E0D94AD949DA48B7
:1002B00003F0BDF9E8BBD34AD049CE4804F0D9FADF
:1002C000D548006809F0ECFE404200B2CA490880F7
:1002D000D048006809F0E4FE00B2C9490880CC4863
:1002E000006809F0DDFE00B2C7490880C148B0F9D6
:1002F00000000A2190FBF1F000F6CC4000B2C749A3
:100300000880BE48B0F900000A2190FBF1F000F629
:10031000CC4000B2C2490880BA48B0F900000A21B6
:1003200090FBF1F000F6CC4000B2BE4908801E20E0
:1003300000E001E004F035FDB7E70121BA4804F020
:10034000F8FF0121B94805F056FA4FF4FA6004F0BD
:1003500028FD04E0FFF742FF142004F022FDF9E736
:100360008EB00120B24908604EF67D7001F05CF855
:10037000B0A04EF67D731F2214210090052000F0DE
:1003800072FCAEA04EF67D731F222821009005203E
:1003900000F069FCABA04EF67D731F223C2100905B
:1003A000052000F060FCC8E0A848008800F4004088
:1003B000002871D0A5480078A54908700120A549FA
:1003C00008703CE0A448A3490978405C2C2805D17A
:1003D000A2480068401CA14908602BE09F490868BA
:1003E00000EBD0714910A0EB410101290CD19A48D2
:1003F00098490978405C9A499A4A12688854994801
:100400000068401C974908609449086800EBD07167
:100410004910A0EB410161B98F488E490978405CD1
:100420009149924A1268885490480068401C8F494C
:10043000086000BF87480078401C864908708548DE
:100440000078834909788842BCDB09E0202186488E
:10045000864A1268815485480068401C83490860B8
:10046000824800680A28F1DB09E020217C487D4AA7
:10047000126881547B480068401C7A4908607948BA
:1004800000680A28F1DB0020784908607549086097
:10049000724908606D49088075A04EF67D731A4652
:1004A00014210090462000F0DEFB71A04EF67D7313
:1004B0001A4628210090462000F0D5FB6CA04EF68D
:1004C0007D731A463C210090462000F0CCFB4A4840
:1004D000B0F9002069A10AA808F06EF84848B0F900
:1004E000002066A106A808F067F84748B0F9002088
:1004F00062A102A808F060F80AA84EF67D734FF4D6
:10050000784214210090462000F0ADFB06A84EF67C
:100510007D734FF4784228210090462000F0A3FB21
:1005200002A84EF67D734FF478423C21009046209D
:1005300000F099FB322004F034FC35E70EE0002097
:10054000504908604FF4967004F02BFC01204E498E
:10055000C1F8B4014FF4967004F023FCEFE770B5D6
:100560000446002500BF07F07BFF05460223474AEB
:100570000021AFF2370007F0FBFA0423444A0021C0
:10058000AFF2232007F0F4FA0323424A0021AFF22E
:10059000552007F0EDFA01233F4A0021AFF2F72082
:1005A00007F0E6FA05233D4A0021AFF2913007F04B
:1005B000DFFA062007F05CFD284607F055FF70BD06
:1005C00010B504F0A5FB04F015FC4FF4E13004F085
:1005D00026FC04F079FB00F0C5FD00F041FF32235A
:1005E000014A11494C315BE01409002078090020D0
:1005F00096090020120000200C00002014000020AA
:100600000E000020160000201000002044000020F2
:100610000800002004000020000000201800002036
:100620001A0000201C0000200024014008000240A5
:10063000100C014070697463683A000020726F6C9E
:100640006C3A000020796177203A0000A000002079
:100650001F0000201E000020B809002020000020FC
:100660008C0900202800002082090020240000209E
:10067000202020202020202020200000252B346452
:1006800000000000B40122420000224210030020BA
:10069000100500201006002010080020100900207E
:1006A0000F4800F06BFF02E00EA007F079FF04F0A6
:1006B00016F80028F8D102E00EA007F071FF02F052
:1006C00069FF0028F8D105F0A0FF06230E4A00219B
:1006D000AFF2751007F04CFA06F0BCF8002010BD20
:1006E000080002406D707520696E69742065727231
:1006F0006F7221006D707520646D7020696E697471
:10070000206572726F72210010020020704700BFD6
:10071000FEE700BFFEE700BFFEE700BFFEE7704751
:100720007047000030B5014601F01F04C1F34513C6
:10073000CA0AE50205EB43151544A8B230BD2DE900
:10074000F04706460F4690469A46002445464FEA33
:100750004800C0F103094AE07A1991B2321990B207
:10076000524600F045FE7A1991B2321B90B25246C1
:1007700000F03EFE7A1B91B2321990B2524600F060
:1007800037FE7A1B91B2321B90B2524600F030FE17
:100790003A1991B2721990B2524600F029FE3A19F4
:1007A00091B2721B90B2524600F022FE3A1B91B2F7
:1007B000721990B2524600F01BFE3A1B91B2721BA6
:1007C00090B2524600F014FEB9F1000F05DA042091
:1007D00000FB049000F1060907E0601B042101FB07
:1007E000009000F10A09681E85B2601C84B2AC4218
:1007F000B2DBAC4237D17A1991B2321990B252467B
:1008000000F0F6FD7A1991B2321990B2524600F01A
:10081000EFFD7A1B91B2321990B2524600F0E8FD1A
:100820007A1B91B2321B90B2524600F0E1FD3A19A8
:1008300091B2721990B2524600F0DAFD3A1991B2B3
:10084000721B90B2524600F0D3FD3A1B91B272195E
:1008500090B2524600F0CCFD3A1B91B2721B90B29E
:10086000524600F0C5FDBDE8F0872DE9FF4F83B08B
:10087000804689464946404600F0B0FD0598A0EB09
:1008800008050698A0EB0906002D02DB0120029066
:1008900003E04FF0FF3002906D42002E02DB01209A
:1008A000019003E04FF0FF30019076424FEA450A95
:1008B0004FEA460BB54219DDABEB0504002712E009
:1008C00049464046109A00F093FD002C05DBA4EB4E
:1008D0000A04019848441FFA80F95C440298404495
:1008E0001FFA80F87F1CAF42EADD18E0AAEB06048D
:1008F000002712E049464046109A00F079FD002C8E
:1009000005DBA4EB0B04029840441FFA80F8544422
:10091000019848441FFA80F97F1CB742EADD07B00E
:10092000BDE8F08F2DE9F84305460C4616461F46F4
:10093000DDF820804EF67D700090A81982B2234623
:1009400021462846FFF791FF42F6651004F1010C9D
:10095000BC441FFA8CF305EB060CACF1010C1FFA3A
:100960008CF204F1010C1FFA8CF105EB060CACF1D2
:10097000010C00901FFA8CF0FFF777FF42F665102C
:100980000090E01983B2A81982B2E01981B228461A
:10099000FFF76BFF4EF67D700090E01983B22A4698
:1009A00021462846FFF761FF04F1010CBC44ACF17D
:1009B000020C1FFA8CF305F1010CB444ACF1020CEB
:1009C0001FFA8CF204F1010C1FFA8CF105F1010CF5
:1009D0001FFA8CF0CDF80080FFF747FFBDE8F883E1
:1009E0002DE9F84305460C4616461F46DDF82080E3
:1009F000B8F1000F39D14EF67D700090A81982B27F
:100A0000234621462846FFF730FF42F6651004F1E1
:100A1000010CBC441FFA8CF305EB060CACF1010C85
:100A20001FFA8CF204F1010C1FFA8CF105EB060C95
:100A3000ACF1010C00901FFA8CF0FFF716FF42F6A4
:100A400065100090E01983B2A81982B2E01981B252
:100A50002846FFF70AFF4EF67D700090E01983B23A
:100A60002A4621462846FFF700FFB8F1010F39D189
:100A700042F665100090A81982B223462146284606
:100A8000FFF7F3FE4EF67D7004F1010CBC441FFA33
:100A90008CF305EB060CACF1010C1FFA8CF204F19F
:100AA000010C1FFA8CF105EB060CACF1010C009067
:100AB0001FFA8CF0FFF7D9FE4EF67D700090E0191A
:100AC00083B2A81982B2E01981B22846FFF7CDFEA1
:100AD00042F665100090E01983B22A462146284666
:100AE000FFF7C3FEB8F1020F39D14FF6FF70009047
:100AF000A81982B2234621462846FFF7B6FE4FF6D4
:100B0000FF7004F1010CBC441FFA8CF305EB060CDA
:100B1000ACF1010C1FFA8CF204F1010C1FFA8CF1FC
:100B200005EB060CACF1010C00901FFA8CF0FFF7FE
:100B30009CFE4FF6FF700090E01983B2A81982B2B4
:100B4000E01981B22846FFF790FE4FF6FF70009043
:100B5000E01983B22A4621462846FFF786FEBDE803
:100B6000F883F8B504460D4616461F4644F20820A1
:100B70002B463246294600902046FFF776FE48F283
:100B800010406A1C93B291B2621C009090B232463F
:100B9000FFF76BFE44F208203B46224629460090B0
:100BA0002046FFF762FE48F21040631C9AB26B1CAD
:100BB00099B2631C009098B23B46FFF756FE4FF681
:100BC000FF703B463246394600902046FFF74DFE07
:100BD0004FF6FF703B463246294600903046FFF7FD
:100BE00044FEF8BDF8B506460F4614461D464FF6BE
:100BF000FF703B462246394600903046FFF735FEEF
:100C00004FF6FF702B463246394600903046FFF7CC
:100C10002CFE48F210406A1E93B291B2721C0090F2
:100C200090B22246FFF721FE44F208202B462246CE
:100C3000294600903046FFF718FE48F21040631E28
:100C40009AB27B1C99B2631E009098B22B46FFF7B4
:100C50000CFE44F208202B462246394600902046DE
:100C6000FFF703FEF8BD2DE9F84F07468846934687
:100C70009A46DDF828900097B3E099F800008028A4
:100C80003DDA99F800600D2E05D1009F08F11000A3
:100C90001FFA80F830E0202E03DDA6F1200086B296
:100CA00000E00026002422E000251CE004EB0610F2
:100CB000E849085C80212941084040B108EB040262
:100CC00091B27A1990B25A4600F092FB09E0D345EE
:100CD00007D008EB040291B27A1990B2524600F0A4
:100CE00087FB681CC5B2082DE0DB601CC4B2102C69
:100CF000DADB07F1080087B209F1010971E000268B
:100D000068E006EB0610D44911F8100099F80010BD
:100D100088425DD106EB0610CF4901EB40004078D8
:100D200099F80110884253D100244FE0002520E0BB
:100D300006EB0610C84901EB4000801C10F81410A7
:100D400080202841014041B108EB040291B27A1998
:100D500090B25A4600F04CFB09E0D34507D008EBAF
:100D6000040291B27A1990B2524600F041FB681C1D
:100D7000C5B2082DDCDB002524E006EB0610B649E1
:100D800001EB4000801C012101EB4401405C80210B
:100D90002941084048B108EB040291B27A1908329F
:100DA00090B25A4600F024FB0AE0D34508D008EB85
:100DB000040291B27A19083290B2524600F018FB40
:100DC000681CC5B2082DD8DB601CC4B2102CADDB8A
:100DD000701C86B2292E94DB09F1020907F110007C
:100DE00087B299F8000000287FF447AFBDE8F88F7C
:100DF0002DE9F05F0646884693469A46DDF828902E
:100E0000E2E099F80000802835DA99F80070202F88
:100E100003DDA7F1200087B200E00027002522E0D3
:100E200000241CE005EB07108A49095C8020204162
:100E3000014041B108EB050291B2321990B25A4615
:100E400000F0D6FA09E0D34507D008EB050291B2CD
:100E5000321990B2524600F0CBFA601CC4B2082C92
:100E6000E0DB681CC5B2102DDADB09F1010906F1DF
:100E7000080086B2A8E000279EE007EB870000EBA1
:100E80004710764911F8100099F8001088427CD17B
:100E900007EB870000EB4710704901EB40004078FA
:100EA00099F801108842F2D1002580E0002423E067
:100EB00007EB870000EB4710684901EB4000801CFE
:100EC00005EB4501405C80212141084040B108EB21
:100ED000050291B2321990B25A4600F089FA09E03F
:100EE000D34507D008EB050291B2321990B25246B1
:100EF00000F07EFA601CC4B2082CD9DB002426E086
:100F000007EB870000EB4710544901EB4000801CC1
:100F100005EB4501491C405C80212141084048B156
:100F200008EB050291B23219083290B25A4600F02D
:100F30005FFA0AE0D34508D008EB050291B23219F6
:100F4000083290B2524600F053FA601CC4B2082C2A
:100F5000D6DB002427E007EB870000EB47103F4972
:100F600001EB4000801C05EB4501891C405C8021A1
:100F70002141084050B108EB050291B232191032FC
:100F800090B25A4600F034FA0BE013E0D34508D093
:100F900008EB050291B23219103290B2524600F0BD
:100FA00027FA601CC4B2082CD5DB681CC5B2182D0A
:100FB000FFF67CAF781C87B2192FFFF65EAF09F100
:100FC000020906F1180086B299F8000000287FF4A3
:100FD00018AFBDE8F09F2DE9F05F074688469246BE
:100FE0009946002531E000242BE01D490A9801EBC9
:100FF000C01000EB850010F804B000261DE0802032
:10100000304100EA0B0050B108EB050291B207EB4A
:10101000C402324490B2524600F0EAF90BE0CA45ED
:1010200009D008EB050291B207EBC402324490B23A
:101030004A4600F0DDF9701CC6B2082EDFDB601CEA
:10104000C4B2042CD1DB681CC5B2202DCBDBBDE8BB
:10105000F09F0000AEA5000820B30008B4B8000857
:101060009FAB000808B50121082004F03DFF4BF2BA
:101070000300ADF8000003208DF8020010208DF869
:1010800003006946F54804F073FC08BD00210821FF
:1010900018E000F080022AB14FF40042EF4B103309
:1010A0001A6004E04FF40042EC4B14331A604FF422
:1010B0000052EA4B14331A601B1F1A604206100ECE
:1010C0004A1ED1B20029E4DC704710B504464FF443
:1010D0008050E24914310860022008602046FFF782
:1010E000D5FF4FF48050DD491031086010BD10B5B8
:1010F00004464FF48050D949143108600220091F7A
:1011000008602046FFF7C2FF4FF48050D3491031EA
:10111000086010BD10B504464FF48050CF4914311B
:1011200008600220091F08602012FFF7AFFFE0B23D
:10113000FFF7ACFF4FF48050C8491031086010BD74
:1011400030B505460C462846FFF7BFFF2046FFF79F
:10115000CEFF30BD10B5642003F023FE322003F033
:1011600020FE10BD10B5FFF77DFFFFF7F3FF112044
:10117000FFF7ABFF782003F014FEB120FFF7A5FFC7
:101180000120FFF7B4FF2C20FFF7B1FF2D20FFF760
:10119000AEFFB220FFF799FF0120FFF7A8FF2C2038
:1011A000FFF7A5FF2D20FFF7A2FFB320FFF78DFF6C
:1011B0000120FFF79CFF2C20FFF799FF2D20FFF760
:1011C00096FF0120FFF793FF2C20FFF790FF2D20C3
:1011D000FFF78DFFB420FFF778FF0720FFF787FFA9
:1011E000C020FFF772FFA220FFF781FF0220FFF768
:1011F0007EFF8420FFF77BFFC120FFF766FFC5203D
:10120000FFF775FFC220FFF760FF0A20FFF76FFFAF
:101210000020FFF76CFFC320FFF757FF8A20FFF77E
:1012200066FF2A20FFF763FFC420FFF74EFF8A20E6
:10123000FFF75DFFEE20FFF75AFFC520FFF745FFE0
:101240000E20FFF754FF3620FFF73FFFC820FFF7BF
:101250004EFFE020FFF739FF0F20FFF748FF1A206D
:10126000FFF745FF0F20FFF742FF1820FFF73FFF72
:101270002F20FFF73CFF2820FFF739FF2020FFF742
:1012800036FF2220FFF733FF1F20FFF730FF1B2020
:10129000FFF72DFF2320FFF72AFF3720FFF727FF57
:1012A0000020FFF724FF0720FFF721FF0220FFF7B0
:1012B0001EFF1020FFF71BFFE120FFF706FF0F20A6
:1012C000FFF715FF1B20FFF712FF0F20FFF70FFF9F
:1012D0001720FFF70CFF3320FFF709FF2C20FFF743
:1012E00006FF2920FFF703FF2E20FFF700FF302025
:1012F000FFF7FDFE3020FFF7FAFE3920FFF7F7FE7B
:101300003F20FFF7F4FE0020FFF7F1FE0720FFF774
:10131000EEFE0320FFF7EBFE1020FFF7E8FE2A2089
:10132000FFF7D3FE0020FFF7E2FE0020FFF7DFFE0D
:101330000020FFF7DCFE7F20FFF7D9FE2B20FFF710
:10134000C4FE0020FFF7D3FE0020FFF7D0FE0020F0
:10135000FFF7CDFE9F20FFF7CAFEF020FFF7B5FE96
:101360000120FFF7C4FEF620FFF7AFFE0020FFF7D5
:10137000BEFE3A20FFF7A9FE0520FFF7B8FE2920A0
:10138000FFF7A3FE10BDF0B504460D4616461F46F6
:101390002A20FFF79AFE0020FFF7A9FEA11CC8B281
:1013A000FFF7A5FE0020FFF7A2FEB11CC8B2FFF7B1
:1013B0009EFE2B20FFF789FE0020FFF798FEE91C18
:1013C000C8B2FFF794FE0020FFF791FEF91CC8B2E7
:1013D000FFF78DFE2C20FFF778FEF0BD30B50446F8
:1013E0000D462B46224629462046FFF7CCFF30BD4E
:1013F00070B504460D461646681C83B2601C82B266
:1014000029462046FFF7BFFF3046FFF783FE70BD39
:1014100060B505460E4631462846FFF7DFFFE0B2CD
:10142000FFF765FE204660BD70B506467F231A466D
:1014300000210846FFF7A7FF2C20FFF746FE0024F7
:1014400008E0002503E03046FFF764FE6D1C802DA8
:10145000F9D3641C802CF4D370BD0000000C014053
:1014600000B587B001214FF4057004F03DFD4FF445
:10147000004004F09DFCFF20ADF8040000208DF832
:10148000070001A93A4804F073FA2020ADF80400DF
:1014900000208DF8070001A9364804F069FA3648A3
:1014A00003F0B4FE0020029001208DF80C008DF8AE
:1014B0000D004FF4602004900020059009208DF865
:1014C000180002A92C4803F0C8FE072302220021BD
:1014D000294803F05AFF072303220121264803F07D
:1014E00054FF072304220221234803F04EFF072361
:1014F00005220321204803F048FF07230922042185
:101500001D4803F042FF0723082205211A4803F073
:101510003CFF072306221146174803F036FF072336
:101520001A461946144803F030FF072301220F2101
:10153000114803F02AFF01210F4803F0BAFE0121F0
:101540000D4803F0C1FE0C4803F0D5FE00BF0A4869
:1015500003F0D6FE0028FAD1074803F0DBFE00BFF7
:10156000054803F0DCFE0028FAD107B000BD0000FA
:10157000000801400010014000240140F0B58BB08C
:1015800007460D4616461C460121084604F09FFCFE
:10159000384604F063F80D490C7000950196002060
:1015A00002900394049080200590400006908000F3
:1015B0000790202008900002099000200A906946B8
:1015C000384604F0EDF80BB0F0BD00005C000020E0
:1015D00038B50446F74890F82400C0B114B1022091
:1015E000009001E000200090F24A1268D17BF14A9D
:1015F000526810786B46012203F063F910B14FF086
:10160000FF3038BD9DF80010EA48417423E0E948F6
:10161000807A10B94FF0FF30F3E724B1E548407C01
:1016200008B10020EDE714B10120009001E0002096
:101630000090E04A1268D17BDE4A526810786B460F
:10164000012203F03EF910B14FF0FF30D9E79DF8C9
:101650000010D84841740020D3E738B500241FE0BB
:10166000D4480068C07AA04204D0D2480068407DC7
:10167000A04200D112E0CF49496808786B460122A8
:10168000214603F069F810B14FF0FF3038BD9DF8E6
:1016900000202146C8A006F083FF00BF601CC4B232
:1016A000C44840680079A042DADC0020EEE770B55B
:1016B00004460D46BF480068C07AA04204D0BD4829
:1016C0000068407DA04202D14FF0FF3070BDB948A4
:1016D00040680079A04202DC4FF0FF30F6E7B549E0
:1016E000496808782B460122214603F035F8EDE7DA
:1016F00038B50446AF4890F82300A04201D100203D
:1017000038BD14B13020009001E000200090A948BD
:10171000807C20B19DF8000040F002000090A548B8
:1017200090F8220020B19DF8000040F08000009069
:10173000A04A1268117D9F4A526810786B460122B8
:1017400003F0BFF810B14FF0FF30D9E7994880F8A7
:1017500023400020D4E738B5044604F0700010B1EF
:101760000120009005E014B10020009001E040202D
:101770000090904A1268917C8E4A526810786B46AD
:10178000012203F09EF820B100218A488172481E90
:1017900038BD9DF8000020F040018648017300200C
:1017A000009004F0400020B99DF8000040F00400D3
:1017B000009004F0200020B99DF8000040F00200E5
:1017C000009004F0100020B99DF8000040F00100E6
:1017D000009004F0080020B99DF8000040F03800A7
:1017E0000090744A1268D17C724A526810786B4635
:1017F000012203F066F820B100216E488172481E74
:10180000C6E724B1082C02D00020FFF771FF694819
:10181000847200210175322003F0C3FA0020B7E77B
:1018200038B504466348807CA04201D1002038BD11
:10183000002C46D05F4A126811795E4A52681078CF
:101840006B46012202F088FF10B14FF0FF30EEE747
:101850009DF8000020F020000090564A126811798F
:10186000544A526810786B46012203F02AF810B1EE
:101870004FF0FF30DBE7032003F093FA02200090E3
:101880004C4890F8220020B19DF8000040F0800004
:101890000090484890F8230020B19DF8000040F0E7
:1018A00030000090434A1268117D424A5268107815
:1018B0006B46012203F005F8002851D04FF0FF30AD
:1018C000B5E73C4A126811793A4A526810786B467B
:1018D000012202F041FF10B14FF0FF30A7E7354879
:1018E000807A00F0010028B19DF8000040F020004F
:1018F000009004E09DF8000020F0200000902D4AA8
:10190000126811792B4A526810786B46012202F056
:10191000D8FF10B14FF0FF3089E7032003F041FA00
:10192000244890F8220010B18020009001E00020AF
:101930000090204890F8230020B19DF8000040F06E
:10194000300000901B4A1268117D1A4A52681078C4
:101950006B46012202F0B5FF10B14FF0FF3066E791
:1019600014488474002062E708B51248807A10B9E0
:101970004FF0FF3008BD002000900E4A1268D17B66
:101980000C4A526810786B46012202F09AFF10B19F
:101990004FF0FF30EEE7074A12685179054A526866
:1019A00010786B46012202F08CFF68B14FF0FF30D7
:1019B000E0E7000060000020252335783A20252349
:1019C00035780D0A00000000F84A12681179F74ACC
:1019D000526810786B46012202F073FF10B14FF08D
:1019E000FF30C7E7F14890F82400002853D00C20BE
:1019F0000090EE4A12681179EC4A526810786B46F2
:101A0000012202F05EFF10B14FF0FF30B2E732204A
:101A100003F0C7F9C0200090E448807A00F001008C
:101A200020B19DF8000040F020000090DF4A1268CD
:101A30001179DE4A526810786B46012202F041FFAC
:101A400010B14FF0FF3095E7D848407C10B102202C
:101A5000009001E000200090D44A1268D17BD34A64
:101A6000526810786B46012202F02BFF10B14FF044
:101A7000FF307FE700200090CC4A12685179CB4AB2
:101A8000526810786B46012202F01BFF002855D0E7
:101A90004FF0FF306EE704200090C44A12681179BD
:101AA000C24A526810786B46012202F00AFF10B158
:101AB0004FF0FF305EE7BD48807C20B9BB48807A9C
:101AC00000F0010010B94020009001E0602000907B
:101AD000B64A12681179B54A526810786B460122ED
:101AE00002F0EFFE10B14FF0FF3043E7322003F079
:101AF00058F9AE48407C10B10120009001E0002070
:101B00000090AA4A1268D17BA84A526810786B46A6
:101B1000012202F0D6FE10B14FF0FF302AE7A34AAF
:101B200012685179A14A52681078A04B10330122F3
:101B300002F0C7FE10B14FF0FF301BE7002019E79D
:101B400070B50446002624F00104984890F824005B
:101B500008B1002070BD9548807A10B94FF0FF3071
:101B6000F8E79248057C807A20409049087408463E
:101B7000007CA04202D04FF0FF3600E0002614B9EE
:101B80008A48007D18B10120FFF722FD02E0002005
:101B9000FFF71EFD3CB1FFF7E7FE20B18348057457
:101BA0004FF0FF30D6E73046D4E738B504467F48DB
:101BB000807A10B94FF0FF3038BDBC2C02DB012019
:101BC000009015E0622C02DB0220009010E02A2C2D
:101BD00002DB032000900BE0142C02DB04200090B9
:101BE00006E00A2C02DB0520009001E006200090B0
:101BF0006E48C07A9DF80010884201D10020DBE7D2
:101C00006A4A12689178694A526810786B460122D4
:101C100002F057FE10B14FF0FF30CDE79DF80010F5
:101C20006248C1720020C7E738B50446282C02DD9F
:101C30004FF0FF3038BDDCB90020FFF759FD002020
:101C40008DF8000007208DF80100584A1268917C39
:101C5000564A526810786B46022202F032FE10B1EA
:101C60004FF0FF30E6E70021504801750020E1E722
:101C70000120FFF73DFD20208DF80000012C06D14A
:101C800000208DF801000520FFF78FFF17E0052CDD
:101C900006DC01208DF801000520FFF786FF0EE02D
:101CA000142C06DC02208DF801000A20FFF77DFFCE
:101CB00005E003208DF801001420FFF776FF9DF862
:101CC0000100072101EB8010C0B28DF80100374AF6
:101CD0001268917C354A526810786B46022202F0F5
:101CE000F0FD10B14FF0FF30A4E708212F488172BA
:101CF00000210173012101750020FFF721FF002061
:101D000098E738B504462948807A10B94FF0FF307B
:101D100038BD264890F8240010B14FF0FF30F7E7A7
:101D20002248007D50B134B1282C04DCE0B2FFF72A
:101D30007BFF0020ECE70020FFF776FF042C01DAA0
:101D4000042404E0B4F57A7F01DD4FF47A744FF493
:101D50007A7090FBF4F0401EC0B20090134A1268F3
:101D60005178124A526810786B46012202F0A9FDA0
:101D700010B14FF0FF30CBE79DF80000401C4FF44E
:101D80007A7191FBF0F081B20848C1810146C9899E
:101D90004810FFF70AFF0020BAE738B504460348A9
:101DA000807A28B94FF0FF3038BD00006000002075
:101DB000022C06D0042C07D0082C08D0102C0CD1F3
:101DC00008E0002000900BE00820009008E01020C0
:101DD000009005E01820009002E04FF0FF30E3E7AC
:101DE00000BFF948407A9DF80010B0EBE10F01D137
:101DF0000020D9E7F44A1268D179F34A5268107882
:101E00006B46012202F05DFD10B14FF0FF30CBE7D1
:101E10009DF80000C110EC4841720020C4E738B5BD
:101E20000446E948807A10B94FF0FF3038BDFA2CEB
:101E300009D0B4F5FA7F09D0B4F57A7F09D0B4F5AA
:101E4000FA6F0CD108E0002000900BE00820009011
:101E500008E01020009005E01820009002E04FF00C
:101E6000FF30E3E700BFD848007A9DF80010B0EBE0
:101E7000E10F01D10020D9E7D34A12689179D24A03
:101E8000526810786B46012202F01BFD10B14FF032
:101E9000FF30CBE79DF80000C010CB49087200204E
:101EA000C4E71CB580208DF80000C74A1268917CF9
:101EB000C54A526810786B46012202F002FD10B14B
:101EC0004FF0FF301CBD642002F06BFF00208DF846
:101ED0000000BD4A1268917CBB4A526810786B467C
:101EE000012202F0EEFC10B14FF0FF30EAE7B64AF3
:101EF0001268917DB44A526810786B46062202F04F
:101F00002BFC10B14FF0FF30DCE79DF80500C00757
:101F1000400F9DF8031001F0010140EA41009DF8D7
:101F2000011001F0010140EA010494B1012C03D138
:101F30000121A548C17431E0022C03D10021A2483F
:101F4000C1742BE02146A1A006F02AFB4FF0FF3020
:101F5000B8E79D4A1268D1789B4A526810786B4660
:101F6000012202F0F9FB10B14FF0FF30AAE79DF813
:101F7000000000F00F042CB99E4806F011FB4FF052
:101F8000FF309FE7042C06D19BA006F009FB01213E
:101F90008D48C17402E000218B48C174FF218A483A
:101FA0008172FF2088490872FF2187484172C172FF
:101FB0004FF6FF71C181FF2101748174012101730A
:101FC00080F82210002180F8231041750175163029
:101FD000016041608160163880F8241080F8251077
:101FE000C1844FF4FA60FFF71AFF10B14FF0FF30D1
:101FF00068E70220FFF7D1FE10B14FF0FF3061E734
:102000002A20FFF7D2FD10B14FF0FF305AE73220FF
:10201000FFF777FE10B14FF0FF3053E70020FFF7D6
:102020008FFD10B14FF0FF304CE70020FFF7F8FBB9
:1020300010B14FF0FF3045E70020FFF78CFB002088
:1020400040E770477CB504460D465F48807A00F053
:10205000700010B94FF0FF307CBD5B4A1268117BF5
:10206000594A526810786B46062202F075FB10B18F
:102070004FF0FF30F0E79DF801009DF8001040EAB6
:10208000012000B220809DF803009DF8021040EA74
:10209000012000B260809DF805009DF8041040EA20
:1020A000012000B2A08015B12846FFF7CAFF00202A
:1020B000D2E77CB504460D464348807A00F008001C
:1020C00010B94FF0FF307CBD3F4A1268517B3E4A49
:1020D000526810786B46062202F03EFB10B14FF0BA
:1020E000FF30F0E79DF801009DF8001040EA012064
:1020F00000B220809DF803009DF8021040EA012004
:1021000000B260809DF805009DF8041040EA0120AF
:1021100000B2A08015B12846FFF793FF0020D2E758
:102120002DE9FE4F05460C462748807A18B94FF036
:10213000FF30BDE8FE8F244A1268917B224A526824
:10214000107802AB022202F007FB10B14FF0FF3013
:10215000EFE79DF809009DF8081040EA012006B25B
:1021600014B12046FFF76DFF17494968C88807F08A
:10217000EBFF154901904968B1F9080007F0CCFF61
:102180008346304607F0C8FF5946009008F022F910
:102190008246019907F08EFE81461F4907F01CFE1A
:1021A00080464FF08F4108F017F8074607F078FF98
:1021B00028600020BDE710B588B004461CB94FF078
:1021C000FF3008B010BD29E060000020556E737527
:1021D00070706F7274656420736F66747761726576
:1021E0002070726F64756374207265762025642E8A
:1021F0000A00000018CE000848616C662073656E06
:102200007369746976697479207061727420666F7D
:10221000756E642E0A00000000000C42206830B980
:10222000606820B9A06810B9002008B010BDFA4954
:102230004968087806AB0322114602F08DFA10B106
:102240004FF0FF30F1E79DF81800082101EB201056
:1022500000F00F00ADF800009DF8190001EB201010
:1022600000F00F00ADF802009DF81A0001EB2010FD
:1022700000F00F00ADF8040020684100BDF9000037
:10228000403091FBF0F000B2ADF810006068410002
:10229000BDF90200403091FBF0F000B2ADF8120041
:1022A000A0684100BDF90400403091FBF0F000B29D
:1022B000ADF81400D8494968087806AB06221146E3
:1022C00002F04AFA10B14FF0FF30AEE79DF8190066
:1022D0009DF8181040EA012000B2ADF808009DF802
:1022E0001B009DF81A1040EA012000B2ADF80A0068
:1022F0009DF81D009DF81C1040EA012000B2ADF8C9
:102300000C00BDF81000BDF80810084400B2ADF88C
:102310001000BDF81200BDF80A10084400B2ADF874
:102320001200BDF81400BDF80C10084400B2ADF85E
:102330001400BDF81000000A8DF81800BDF8100058
:10234000C0B28DF81900BDF81200000A8DF81A000D
:10235000BDF81200C0B28DF81B00BDF81400000AD1
:102360008DF81C00BDF81400C0B28DF81D00AA49FC
:102370004968087806AB0622114602F0A2FA10B1AD
:102380004FF0FF3051E700204FE70146A248007AA6
:1023900030B1012807D0022809D003280FD10AE064
:1023A000FA2008800EE04FF4FA7008800AE04FF43B
:1023B0007A70088006E04FF4FA60088002E000209E
:1023C000088000BF00BF0020704701469248407A55
:1023D00030B1012807D0022808D003280CD108E02A
:1023E000022008700BE00420087008E00820087044
:1023F00005E01020087002E04FF0FF30704700BF8A
:102400008548C07C18B108784006000E087000208E
:10241000F4E701468048C07A082817D2DFE800F0C8
:102420001704070A0D101318BC20088013E062205F
:10243000088010E02A2008800DE0142008800AE0BF
:102440000A20088007E00520088004E000BF00BFE4
:102450000020088000BF00BF0020704701466E4882
:1024600090F8240010B14FF0FF3070476A48C089DF
:1024700008800020F9E7014600200880401E7047D0
:1024800001464FF0FF30704701466348007A30B193
:10249000012807D0022808D003280CD108E05F48A3
:1024A00008600BE05E48086008E05E48086005E0F0
:1024B0005D48086002E04FF0FF30704700BF002029
:1024C000FBE701465448407A30B1012808D0022881
:1024D0000AD0032810D10BE04FF4804008800EE0B2
:1024E00041F69C7008800AE04FF48050088006E0B6
:1024F0004FF40060088002E04FF0FF30704700BFEB
:102500004548C07C10B10888401008800020F5E7DD
:1025100001464148007C08700020704701463E4853
:10252000807A10B10120087001E0002008700020BE
:10253000704738B504463848807A10B94FF0FF30FC
:1025400038BD354A1268117C334A526810786B46A0
:10255000022202F001F910B14FF0FF30F0E79DF8D0
:1025600001009DF8001040EA012000B22080002008
:10257000E6E72DE9FE4F0746884692461D46DDF800
:1025800030B000260024244890F8240010B1601ECA
:10259000BDE8FE8F002028701F48807A10B94FF0E8
:1025A000FF30F5E71C48007C10B94FF0FF30EFE733
:1025B0001948007C00F0400008B1B01CC6B21648B3
:1025C000007C00F0200008B1B01CC6B21248007CAC
:1025D00000F0100008B1B01CC6B20F48007C00F03B
:1025E000080008B1B01DC6B20B4A1268917A0A4AB7
:1025F000526810786B46022202F0AEF810B14FF02C
:10260000FF30C5E79DF801009DF8001040EA012960
:10261000B1450BDA0020BBE7600000200000034357
:10262000000083423333034233338341FC48406824
:102630004088B9EB600F17DDF94A1268517CF84AFF
:10264000526810786B46012202F086F810B14FF004
:10265000FF309DE79DF8000000F0100020B1FFF76B
:1026600083F96FF0010093E75046FFF7EAFCEC4A6C
:102670001268D17AEA4A526810786B46324602F004
:102680006BF810B14FF0FF3082E799FBF6F0401E77
:102690008BF8000000202870B4422AD0E048007C6B
:1026A00000F0080028B3601C1DF800001DF804109D
:1026B00040EA012000B2A8F80000E01C1DF800105C
:1026C000A01C1DF8000041EA002000B2A8F802009A
:1026D000601D1DF80010201D1DF8000041EA0020BB
:1026E00000B2A8F80400287840F008002870A01D67
:1026F00084B2B44213D0CA48007C00F0400070B1EC
:10270000601C1DF800001DF8041040EA012000B212
:102710003880287840F040002870A01C84B2B44271
:1027200013D0BF48007C00F0200070B1601C1DF881
:1027300000001DF8041040EA012000B278802878DB
:1027400040F020002870A01C84B2B44213D0B448DA
:10275000007C00F0100070B1601C1DF800001DF836
:10276000041040EA012000B2B880287840F0100040
:102770002870A01C84B200200AE7F8B504460F4672
:102780001646A74890F8240010B94FF0FF30F8BD66
:10279000A348807A10B94FF0FF30F8E7A04A1268DA
:1027A000917A9F4A526810786B46022201F0D4FF5A
:1027B00010B14FF0FF30EAE79DF801009DF80010DE
:1027C00040EA0125A54203DA00203070401EDEE712
:1027D000934840684088B5EB600F17DD904A126857
:1027E000517C8F4A526810786B46012201F0B4FF89
:1027F00010B14FF0FF30CAE79DF8000000F0100064
:1028000020B1FFF7B1F86FF00100C0E7E2B2844BEE
:102810001B68D97A824B5B6818783B4601F09CFFB5
:1028200010B14FF0FF30B2E795FBF4F0401E30706E
:102830000020ACE701467A4880F82210002070475B
:102840007CB5054676494968087801AB04220D211C
:1028500001F082FF08B107207CBD9DF80700C0F39E
:1028600001109DF8041001F0E00140EAE1008DF84C
:1028700000009DF80700C0F381009DF8051001F0ED
:10288000E00140EAE1008DF801009DF8070000F04A
:1028900003009DF8061001F0E00140EAE1008DF828
:1028A000020000241CE01DF8040018B9002045F8BF
:1028B000240013E05B4845F8240006E055F82400A6
:1028C000594907F089FC45F824001DF80400401E12
:1028D000C0B20DF804000028F0D100BF601CC4B2E3
:1028E000032CE0DB0020B7E72DE9FE4F06460F463C
:1028F00000256846FFF7A4FF002442E056F82400B4
:1029000057F82410A0EB010ABAF1000F01DB514681
:1029100001E0CAF10001084607F0FEFB83464FF0D4
:102920008F4107F0C7FA80465DF82400002107F0C8
:1029300083FB16D05DF82410404607F0BBFA8246B0
:102940004FF07E5107F046FD814629F0004A374896
:10295000416A504607F00CFD12D20120A040054309
:102960000EE03248C169404607F002FC05D32F480B
:10297000016A404607F0FCFC02D20120A04005435A
:10298000641C032CBADB2846BDE8FE8F2DE9FC5FF2
:1029900006460F46002522494968087801AB032204
:1029A0000D2101F0D9FE10B10720BDE8FC9F9DF874
:1029B000040000F01F008DF804009DF8050000F0F1
:1029C0001F008DF805009DF8060000F01F008DF82F
:1029D0000600002462E056F8240057F82410A0EB0B
:1029E000010BBBF1000F01DB594601E0CBF1000107
:1029F000084607F091FB4FF08F41009007F05AFA1C
:102A0000814601A8005DC0B30849086807F09CFB37
:102A100083465946064807F04DFA80460FE000000D
:102A2000600000207B14AE3E1D5A843FCCBF0008DE
:102A300000B04C45FE49404607F0CEFB804601A859
:102A4000005D401EC0B201A908550028F2D14146E0
:102A5000484607F02FFA83464FF07E5107F0BAFC44
:102A600082462AF0004BF3488169584607F080FC03
:102A700013D20120A04005430FE0FFE7ED480169B4
:102A8000484607F075FB05D3EA484169484607F018
:102A90006FFC02D20120A0400543641C032C9ADB8A
:102AA000284682E72DE9F04F87B005460C4691464F
:102AB00001208DF8100000208DF81100DE4A126808
:102AC000917CDD4A5268107804AB022201F0F9FED5
:102AD00020B14FF0FF3007B0BDE8F08FC82002F002
:102AE00060F900208DF81000D34A1268D17BD24AD9
:102AF0005268107804AB012201F0E3FE10B14FF0F0
:102B0000FF30E8E7CC4A12685179CB4A5268107816
:102B100004AB012201F0D5FE10B14FF0FF30DAE72F
:102B2000C54A1268917CC44A5268107804AB0122ED
:102B300001F0C7FE10B14FF0FF30CCE7BE4A12687B
:102B4000D17DBD4A5268107804AB012201F0B9FE74
:102B500010B14FF0FF30BEE7B74A12681179B64A9C
:102B60005268107804AB012201F0ABFE10B14FF0B7
:102B7000FF30B0E70C208DF81000AF4A12681179D1
:102B8000AD4A5268107804AB012201F09AFE10B1F0
:102B90004FF0FF309FE70F2002F003F9A648806A4C
:102BA000407A8DF81000A44A12689178A24A5268BF
:102BB000107804AB012201F084FE10B14FF0FF3019
:102BC00089E79D48806A007A8DF810009A4A126859
:102BD0005178994A5268107804AB012201F071FED5
:102BE00010B14FF0FF3076E7B9F1000F07D09248EF
:102BF000806A807A40F0E0008DF8100004E08E4892
:102C0000806A807A8DF810008B4A126891798A4A1E
:102C10005268107804AB012201F053FE10B14FF05E
:102C2000FF3058E7B9F1000F07D08348806AC07AB7
:102C300040F0E0008DF8100003E07E48C07A8DF887
:102C400010007D4A1268D1797B4A5268107804AB33
:102C5000012201F036FE10B14FF0FF303BE7B9F131
:102C6000000F02D0C82002F09CF840208DF8100020
:102C7000714A12681179704A5268107804AB0122C7
:102C800001F01FFE10B14FF0FF3024E778208DF8DF
:102C90001000694A12685179674A5268107804AB8B
:102CA000012201F00EFE10B14FF0FF3013E7614931
:102CB000888902F076F800208DF810005E4A1268CC
:102CC00051795D4A5268107804AB012201F0F9FD98
:102CD00010B14FF0FF30FEE6574A1268917A564A1B
:102CE0005268107804AB022201F036FD10B14FF0AB
:102CF000FF30F0E69DF811009DF8101040EA012B1E
:102D00000C209BFBF0F0C6B20020A8606860286031
:102D1000A06060602060824665E0474A1268D17A10
:102D2000454A5268107804AB0C2201F015FD10B131
:102D30004FF0FF30CFE69DF811009DF8101040EAEB
:102D4000012000B2ADF808009DF813009DF81210A4
:102D500040EA012000B2ADF80A009DF815009DF888
:102D6000141040EA012000B2ADF80C00BDF90810C3
:102D7000206808442060BDF90A106068084460605B
:102D8000BDF90C10A0680844A0609DF817009DF8DC
:102D9000161040EA012000B2ADF800009DF81900BD
:102DA0009DF8181040EA012000B2ADF802009DF82D
:102DB0001B009DF81A1040EA012000B2ADF8040093
:102DC000BDF90010286808442860BDF90210686841
:102DD00008446860BDF90410A8680844A8600AF1B6
:102DE000010000F0FF0AB24597DB1248D0F800C09E
:102DF0002868C117090441EA10410704624600230C
:102E0000384605F0A8FB32460023CDE9020105F063
:102E1000A2FB28600748D0F800C06868C117090401
:102E200041EA1041070462460023384606E00000EC
:102E300054E3853FCCBF00086000002005F08BFB09
:102E400032460023CDE9020105F085FB6860FE48AB
:102E5000D0F800C0A868C117090441EA104107046E
:102E600062460023384605F076FB32460023CDE962
:102E7000020105F070FBA860F348D0F804C0216897
:102E8000C817000440EA11480F0462460023384680
:102E9000414605F060FB32460023CDE9020105F012
:102EA0005AFB2060E848D0F804C06068C1170904E4
:102EB00041EA1041070462460023384605F04BFB07
:102EC00032460023CDE9020105F045FB6060DE4893
:102ED000D0F804C0A068C117090441EA10410704F2
:102EE00062460023384605F036FB32460023CDE922
:102EF000020105F030FBA060A068002804DDA06896
:102F0000A0F58030A06003E0A06800F58030A060EC
:102F10000020E0E538B50446CC4890F82400A042F3
:102F200001D1002038BD24B3C84890F8250010B95D
:102F30004FF0FF30F6E70020FEF74AFB0020FEF7D7
:102F40006FFCC249C88CFEF7DCFE00200090BF4930
:102F5000496808786B460122232101F0B2FC012167
:102F6000BA4880F824100120FEF732FBFEF7FCFC83
:102F700013E00020FEF72CFBB448007C0090B3491E
:102F8000496808786B460122232101F09AFC002150
:102F9000AE4880F82410FEF7E7FC0020C2E72DE9D8
:102FA000F04F8DB083460F4602200C90A74890F852
:102FB000240020B10020FFF7ADFF012600E000262D
:102FC00003A8FFF7E2F905A8FFF7FFF901A8FFF74B
:102FD00020FA02A8FFF742FA9C4890F80AA004A839
:102FE000FFF796FA002407E0002239465846FFF71B
:102FF00059FD00B902E0641C022CF5DB00BF022C75
:1030000001D1002528E0002407E0012206A909A833
:10301000FFF748FD00B902E0641C022CF5DB00BF9D
:10302000022C01D1002517E006A93846FFF75CFC09
:1030300000F0FF0809A95846FFF7A8FC00F0FF09B7
:103040000025B9F1000F01D145F00105B8F1000FDD
:1030500001D145F0020500BFFF207C490872FF2125
:103060007A484172C1724FF6FF71C181FF218172AE
:10307000017401210173BDF80C00FEF7D0FE9DF82C
:103080001400FEF78AFEBDF80400FEF78EFDBDF8C1
:103090000800FEF736FE5046FEF75DFB9DF8100077
:1030A000FEF74EFD16B10120FFF734FF28460DB0A4
:1030B000BDE8F08FF8B504460D46164616B94FF038
:1030C000FF30F8BD6148807A10B94FF0FF30F8E763
:1030D00020128DF80000E0B28DF801009DF801008B
:1030E00028445A4949684989884202DD4FF0FF3037
:1030F000E7E7564A1268117E544A526810786B46C8
:10310000022201F0DEFB10B14FF0FF30D9E7EAB246
:103110004E4B1B68597D4D4B5B681878334601F068
:10312000D0FB10B14FF0FF30CBE70020C9E7F8B576
:1031300004460D46164616B94FF0FF30F8BD434819
:10314000807A10B94FF0FF30F8E720128DF80000B8
:10315000E0B28DF801009DF8010028443B49496820
:103160004989884202DD4FF0FF30E7E7374A1268AD
:10317000117E364A526810786B46022201F0A1FB9C
:1031800010B14FF0FF30D9E7EAB2304B1B68597DE0
:103190002E4B5B681878334601F0DEFA10B14FF021
:1031A000FF30CBE70020C9E72DE9F04385B00546A5
:1031B0000E4690469946254890F8250020B14FF0DC
:1031C000FF3005B0BDE8F08316B94FF0FF30F8E7E7
:1031D000002423E0281B102801DD102000E0281B1C
:1031E00087B2321939462046FFF764FF10B14FF01D
:1031F000FF30E6E701AA39462046FFF798FF10B1F5
:103200004FF0FF30DDE730193A4601A905F014FB15
:1032100010B16FF00100D4E7E01984B2AC42D9DB01
:103220004FEA28208DF8000008F0FF008DF801001B
:10323000064A1268917E054A526810786B4602224F
:1032400001F03FFB38B103E0CCBF00086000002074
:103250004FF0FF30B5E70121FE4880F82510A0F8B7
:1032600026900020ADE70146FA4890F82400087047
:10327000002070474FF0FF30704702464FF0FF309C
:10328000704701464FF0FF307047F8B505460F46CE
:103290001446002C70D0B5F5FF5F01DDFF2605E078
:1032A000202D01DA012601E0C5F3471607B90127F1
:1032B000282C02DD4FF0FF30F8BDE648407D28BBEA
:1032C000E44890F8240038B10020FFF723FE0121E4
:1032D000E04880F8201003E00021DE4880F820104C
:1032E000DC481630FFF751F8DA481830FFF76DF870
:1032F000D8481A30FFF78DF8D6481C30FFF7AEF8E3
:10330000D448817A81771F30FFF702F90020FEF759
:103310005FF90020FEF788FC00208DF80000CD4A00
:1033200012689178CB4A526810786B46012201F0FE
:10333000C8FA10B14FF0FF30BEE740208DF8000012
:10334000C44A1268D17BC34A526810786B46012286
:1033500001F0B7FA00B165E08DF800608DF80170FA
:10336000BC4A1268117ABB4A526810786B46022236
:1033700001F0A7FA08B155E047E0052001F011FD82
:10338000B448407A072101EBC000C0B28DF80000BC
:10339000B04A1268D179AF4A526810786B46012260
:1033A00001F08FFA00B13DE020208DF80000012CE3
:1033B00003D100208DF801000EE0052C03DC012074
:1033C0008DF8010008E0142C03DC02208DF80100C8
:1033D00002E003208DF801009DF80100072101EBB8
:1033E0008010C0B28DF801009A4A1268917C994A07
:1033F000526810786B46022201F063FA00B111E0C6
:10340000012194484175002056E7924A1632002166
:1034100003E0505C00B105E0491C0C29F9D34FF0E2
:10342000FF3049E7FF208B490872FF21894841722C
:10343000C1724FF6FF71C181FF21817201740121B8
:1034400001730146887FFEF786F98249C88AFEF734
:10345000E6FC8049087EFEF7A0FC7E49488BFEF71B
:10346000A4FB7C49888BFEF74CFC7A49C87FFEF7A9
:1034700067FB784890F8200010B10120FFF74AFD63
:10348000002174484175002016E770B588B002A984
:1034900005A8FFF784FD0446032C3ED101A8FEF7E2
:1034A000F3FF059806F038FE0646019906F094FEF3
:1034B000054606F0F5FD0590069806F02DFE064639
:1034C000019906F089FE054606F0EAFD0690079888
:1034D00006F022FE0646019906F07EFE054606F03D
:1034E000DFFD079005A800F054FA6846FEF7E9FFF3
:1034F000BDF80010029848430290BDF800100398F0
:1035000048430390BDF8001004984843049002A873
:1035100000F0D2FA002008B070BD0120FBE70146A0
:1035200091F90020002A01DD00201EE091F9002021
:10353000002A01DA042018E091F90120002A01DDB7
:10354000012012E091F90120002A01DA05200CE0A7
:1035500091F90220002A01DD022006E091F9022003
:10356000002A01DA062000E00720704710B5044663
:103570002046FFF7D4FF0346E01CFFF7D0FF43EAE5
:10358000C00083B2A01DFFF7CAFF43EA801083B2D8
:10359000184610BD70B5002401F0D1F9FEF781FC8A
:1035A000002840D17820FEF7D6F8C4B20CB1012033
:1035B00070BD7820FEF7C4FAC4B20CB10220F7E760
:1035C0006420FEF79EFBC4B20CB10320F0E700F0CC
:1035D00045F9C4B20CB10420EAE71F48FFF7C6FF63
:1035E000054600F045F9C4B20CB10520E0E740F211
:1035F000731000F07EFDC4B20CB10620D8E7642041
:1036000000F0F0FAC4B20CB10720D1E7FFF73DFF9C
:1036100004460CB10820CBE70120FFF77BFCC4B2C5
:103620001CB10920C4E70A20C2E70020C0E72DE949
:10363000F04F99B004460D4616464FF07E574FF0B6
:1036400000084FF000094FF0000A12A813A918ABA8
:103650000EAA03E0600000208C000020CDE90010DD
:1036600014A916A800F0A4FE18B1012019B0BDE8F5
:10367000F08FBDF84C0000F4807000287ED00E98CA
:1036800006F04AFD83464FF09D4106F013FC0746C5
:103690000F9806F041FD83464FF09D4106F00AFC6D
:1036A0008046109806F038FD83464FF09D4106F0A5
:1036B00001FC8146119806F02FFD83464FF09D4195
:1036C00006F0F8FB824639464FF0804006F084FD54
:1036D0004946059006F080FD414607904FF0404076
:1036E00006F07AFD5146059006F076FD06900799A2
:1036F00006F072FB834606F043FBCDE9080105F0B6
:10370000E5FA4FF06632544BCDE90A0106F05EF857
:10371000CDE90C0105F008FE206049464FF08040DD
:1037200006F05AFD4946029006F056FD41460490C7
:103730004FF0404006F050FD4146029006F04CFD2F
:103740000390049906F046FE83464FF07E5106F042
:1037500043FB059006F014FBCDE9080139464FF014
:10376000804006F039FD4146039006F035FD49469C
:1037700004904FF0804006F02FFD00E068E05146D5
:10378000039006F029FD8346049906F025FB059079
:1037900006F0F6FACDE90601DDE9082305F0DEFCC6
:1037A0004FF066322C4BCDE90A0106F00FF8CDE957
:1037B0000C0105F0B9FD28605146504606F00CFD9D
:1037C00049460490484606F007FD414603904046AE
:1037D00006F002FD39460190384606F0FDFC0090E7
:1037E000019906F0F9FA0290039906F0F3FD834679
:1037F000049906F0EFFD059006F0C2FACDE9080144
:103800005146384606F0E8FC49460490404606F02A
:10381000E3FC0390049906F0DFFA4FF08041059035
:1038200006F0DAFC834606F0ABFACDE90601DDE9E5
:10383000082305F093FC4FF06632074BCDE90A01EF
:1038400005F0C4FFCDE90C0105F06EFD306001E02C
:1038500002200BE7002009E766A64C4010B5C823FC
:103860004FF48062F74940F6F630FFF79DFC10BD3B
:1038700010B586B00446F4A000680390F3A0006879
:103880000290F3A000680190F2A00068009004F09C
:10389000030003A9085C8DF8140003A8C4F3C10158
:1038A000405C8DF8150003A8C4F38111405C8DF8CD
:1038B000160004F0030002A9085C8DF8100002A8AD
:1038C000C4F3C101405C8DF8110002A8C4F381115A
:1038D000405C8DF8120005AA032140F22640FFF754
:1038E000E9FB18B14FF0FF3006B010BD04AA032168
:1038F00040F22A40FFF7DEFB10B14FF0FF30F3E754
:10390000019805900098049004F0040058B19DF8C7
:10391000140040F001008DF814009DF8100040F0F4
:1039200001008DF8100004F0200058B19DF815003A
:1039300040F001008DF815009DF8110040F00100E5
:103940008DF8110004F4807058B19DF8160040F015
:1039500001008DF816009DF8120040F001008DF86E
:10396000120005AA03214FF48860FFF7A3FB10B1F2
:103970004FF0FF30B8E704AA032140F23140FFF7CF
:1039800099FB10B14FF0FF30AEE7B348048100203F
:10399000AAE71FB50446B048007A00F0030054F8C7
:1039A00020000190AC48007A00F0040010B10198AA
:1039B00040420190A848007AC0F3C10054F82000AA
:1039C0000290A548007A00F0200010B10298404211
:1039D0000290A148007AC0F3811054F820000390AF
:1039E0009D48008900F4807010B103984042039014
:1039F0009A49019880FB0101800F40EA8100019003
:103A00009649029880FB0110820042EA9170029070
:103A10009249039880FB0110820042EA9170039062
:103A20000198000E8DF800000198000C8DF801003F
:103A30000198000A8DF802000198C0B28DF80300C9
:103A40006A4604214FF47470FFF734FB18B14FF04D
:103A5000FF3004B010BD0298000E8DF800000298EF
:103A6000000C8DF801000298000A8DF802000298FF
:103A7000C0B28DF803006A4604214FF47570FFF759
:103A800019FB10B14FF0FF30E3E70398000E8DF8FB
:103A900000000398000C8DF801000398000A8DF8CF
:103AA00002000398C0B28DF803006A4604214FF467
:103AB0007670FFF7FFFACCE770B588B0064601A82C
:103AC000FEF7FFFCBDF804000021C90341EA5045A0
:103AD000C4036148007A00F0030056F82000059006
:103AE0005D48007A00F0040010B10598404205904E
:103AF0005948007AC0F3C10056F820000690564895
:103B0000007A00F0200010B106984042069052481A
:103B1000007AC0F3811056F8200007904E480089C3
:103B200000F4807010B10798404207900598C117C3
:103B3000A0FB042301FB043100FB0510810041EAD6
:103B4000927005900698C117A0FB042301FB043175
:103B500000FB0510810041EA927006900798C1179A
:103B6000A0FB042301FB043100FB0510810041EAA6
:103B7000927007900598000E8DF808000598000CCB
:103B80008DF809000598000A8DF80A000598C0B262
:103B90008DF80B000698000E8DF80C000698000CAE
:103BA0008DF80D000698000A8DF80E000698C0B238
:103BB0008DF80F000798000E8DF810000798000C84
:103BC0008DF811000798000A8DF812000798C0B20E
:103BD0008DF8130002AA0C214FF42570FFF76AFA42
:103BE00008B070BD30B585B004461DA207CA02AB4F
:103BF00007C3C82C03DD4FF0FF3005B030BDC8202F
:103C000090FBF4F0401E85B2280A8DF80000E8B25F
:103C10008DF801006A46022140F21620FFF74AFAA9
:103C200010B14FF0FF30E8E702AA0C2140F6C120A6
:103C3000FFF740FA10B14FF0FF30DEE7064884810D
:103C40000020DAE7F4BF00084CCD6C000CC92C0052
:103C50003656760026466600A809002009E3CA0207
:103C6000FEF2ABC4AAF1DFDFBBAFDFDF0146FC48E9
:103C700080890880002070472DE9FC4706460F46E2
:103C800006F0070010B1B7F5C86F03DD4FF0FF3045
:103C9000BDE8FC87384606F057FA8146F14906F040
:103CA00009F980466846FEF790FB9DF8000002285F
:103CB00006D0042816D0082826D0102848D135E090
:103CC0004FF08D41404606F087FA814606F004FA2F
:103CD00084B2E549404606F07FFA814606F0FCF9D9
:103CE00085B238E04FF08C41404606F075FA8146C7
:103CF00006F0F2F984B2DD49404606F06DFA8146DD
:103D000006F0EAF985B226E04FF08B41404606F016
:103D100063FA814606F0E0F984B2D549404606F0E0
:103D20005BFA814606F0D8F985B214E04FF08A417B
:103D3000404606F051FA814606F0CEF984B2CD49EC
:103D4000404606F049FA814606F0C6F985B202E01F
:103D50004FF0FF309CE700BF20128DF80400E0B266
:103D60008DF8050028128DF80600E8B28DF80700DE
:103D700006F00100A0B101AA02214FF4EA70FFF79A
:103D800099F910B14FF0FF3082E70DF106020221E0
:103D90004FF49270FFF78EF910B14FF0FF3077E7D4
:103DA00006F00200A0B101AA02214FF4EC70FFF767
:103DB00081F910B14FF0FF306AE70DF106020221E0
:103DC0004FF49470FFF776F910B14FF0FF305FE7D2
:103DD00006F00400A0B101AA02214FF4EE70FFF733
:103DE00069F910B14FF0FF3052E70DF106020221E0
:103DF0004FF49670FFF75EF910B14FF0FF3047E7D0
:103E0000002045E738B504460020009004F001008A
:103E100020B19DF8000040F03000009004F0020056
:103E200020B19DF8000040F00C00009004F0040068
:103E300020B19DF8000040F0030000906A46012187
:103E40004FF4A470FFF736F938BD38B50446012C9D
:103E500001DA012402E0042C00DD0424601EC0B25B
:103E600000906A46012140F24F10FFF723F938BD58
:103E700038B50446052094FBF0F085B228128DF881
:103E80000000E8B28DF801006A4602214FF4EF709D
:103E9000FFF710F938BD38B50446052094FBF0F063
:103EA00085B228128DF80000E8B28DF801006A464C
:103EB00002214FF4ED70FFF7FDF838BDF8B5054667
:103EC0000E464FF47A7095FBF0F000FB06F4200EDE
:103ED0008DF80000200C8DF80100200A8DF80200FA
:103EE000E0B28DF803006A4604214FF4AE70FFF78C
:103EF000E1F8F8BD38B50446052094FBF0F084B233
:103F000020128DF80000E0B28DF801006A4602210F
:103F10004FF4AD70FFF7CEF838BD38B50446052034
:103F200094FBF0F084B220128DF80000E0B28DF81E
:103F300001006A4602214FF4AC70FFF7BBF838BDB0
:103F400038B5044614B94FF0FF3038BD6A46042135
:103F50004FF45870FFF7EBF810B14FF0FF30F4E773
:103F60009DF8000000069DF8011040EA01409DF810
:103F7000021040EA01209DF8031008432060002051
:103F8000E3E738B50446200E8DF80000200C8DF8CC
:103F90000100200A8DF80200E0B28DF803006A46A5
:103FA00004214FF45870FFF785F838BD38B5044642
:103FB00014B94FF0FF3038BD6A4604214FF47170D8
:103FC000FFF7B5F810B14FF0FF30F4E79DF80000AF
:103FD00000069DF8011040EA01409DF8021040EAF9
:103FE00001209DF80310084300EB80008000206052
:103FF0000020E0E738B504461420B4FBF0F4200EAE
:104000008DF80000200C8DF80100200A8DF80200C8
:10401000E0B28DF803006A4604214FF47170FFF797
:1040200049F838BD38B5044664B120208DF8000049
:1040300028208DF8010030208DF8020038208DF8FE
:10404000030004E0A3220421684604F021FC6A4630
:10405000042140F69E20FFF72DF8FDF785FC38BDC2
:10406000A809002000004843000040460000C04569
:10407000000040450000C04438B5044664B1C0208B
:104080008DF80000C2208DF80100C4208DF80200D8
:10409000C6208DF8030004E08B220421684604F05A
:1040A000F7FB6A46042140F69820FFF703F8FDF776
:1040B0005BFC38BD3EB504466CB1FDA1D1E90020E2
:1040C0008968CDE9002002916A4609214FF4976082
:1040D000FEF7F0FF3EBDF9A2D2E900109268CDE9EB
:1040E000010200916A4609214FF49760FEF7E2FF52
:1040F000F0E73EB5044602208DF80000CA208DF896
:104100000100E3208DF8020009208DF803006A46C3
:1041100004216820FEF7CEFFA3208DF8000004F0F4
:10412000400048B1C0208DF80100C8208DF8020081
:10413000C2208DF8030006E0A3208DF801008DF861
:1041400002008DF8030004F4C07048B1C4208DF85B
:104150000400CC208DF80500C6208DF8060006E08E
:10416000A3208DF804008DF805008DF80600A3202B
:104170008DF807008DF808008DF809006A460A21BD
:1041800040F6A720FEF796FF04F0030018B12020A8
:104190008DF8000002E0D8208DF800006A46012169
:1041A00040F6B620FEF786FF04F0200018B101208B
:1041B000FFF780FF02E00020FFF77CFF04F4C070EF
:1041C00008B304F4807060B1B2208DF800008B2039
:1041D0008DF80100B6208DF802009B208DF80300B9
:1041E0000BE0B0208DF8000080208DF80100B42095
:1041F0008DF8020090208DF803006A46042140F6F5
:10420000A220FEF757FF04F0010020B3F8208DF83C
:1042100000006A4601214FF40B60FEF74BFFFA21C4
:104220000720FFF729FD0720FFF7ECFD0120FFF72E
:104230000CFE6420FFF71CFE4FF4FA70FFF72BFE14
:10424000C821A148FFF73AFE2820FFF753FE0A20B5
:10425000FFF763FE08E0D8208DF800006A460121D0
:104260004FF40B60FEF726FF04F0020018B1D920CE
:104270008DF8000002E0D8208DF800006A46012188
:1042800040F23D70FEF716FF04F0040018B1012063
:10429000FFF7F2FE02E00020FFF7EEFE04F0100050
:1042A00018B10120FFF7BEFE02E00020FFF7BAFEC2
:1042B00044F0080085494881FDF756FB00208349FA
:1042C000887304F0400018B10846807B801D887315
:1042D00004F4C07020B17D48807B801D7B498873C9
:1042E00004F0140020B17948807B1030774988733E
:1042F00004F0030020B17548807B001D734988736A
:1043000000203EBD0146714840890880002070476A
:104310002DE9F0410446E07800F0C006E07800F0B6
:104320003F05607800F0010098B1EF102846E917CA
:1043300005EB5171C910A5EBC101491C01F0FF0843
:104340006248006820B1614841460268384690479B
:1043500000BF607800F0080030B15C48406818B1D8
:10436000B0115A4A516888470020BDE8F08110B565
:1043700086B0044656A207CA03AB07C357A207CAB2
:104380008DE80700012C09D0022C0ED103AA0B21C5
:1043900040F68220FEF78EFE06B010BD6A460B2165
:1043A00040F68220FEF786FEF6E74FF0FF30F3E797
:1043B0002DE9F04F8DB00746884615469946DDE950
:1043C000166B0024002030804049887B5A4605A99E
:1043D000FEF7D3F918B1601E0DB0BDE8F08F3B4871
:1043E000807A00F01400002861D09DF814000006C7
:1043F0009DF8151040EA01409DF8161040EA012092
:104400009DF81710084328609DF8180000069DF8D5
:10441000191040EA01409DF81A1040EA01209DF869
:104420001B10084368609DF81C0000069DF81D10D5
:1044300040EA01409DF81E1040EA01209DF81F103F
:104440000843A8609DF8200000069DF8211040EA6E
:1044500001409DF8221040EA01209DF823100843F6
:10446000E86004F11000C4B2286800140190686884
:1044700000140290A86800140390E86800140490E7
:1044800001984043029901FB0100039901FB0100DF
:10449000049901FB010ABAF1706F02DBBAF1885F7F
:1044A00022DDFDF761FA00203080401E94E721E014
:1044B000B8AAB38DB4980D355D000000B8AAAAAAB9
:1044C000B088C3C5C700000009E3CA02A8090020DC
:1044D000D8B1B9F38BA391B609B4D900DAB1B9F365
:1044E0008BA391B6DAB4DA00B6F9000040F480701C
:1044F000308000BF3448807A00F0400020B305A926
:10450000601C085C095D40EA012000B2A8F80000C8
:1045100005A9E01C095C05AAA01C105C41EA00206A
:1045200000B2A8F8020005A9601D095C201D105CFE
:1045300041EA002000B2A8F80400A01DC4B2B6F9F8
:10454000000040F0080030801F48408900F4C0702F
:1045500008B305A9601C085C095D40EA012000B2AF
:10456000388005A9E01C095C05AAA01C105C41EA82
:10457000002000B2788005A9601D095C201D105C38
:1045800041EA002000B2B880A01DC4B2B6F9000014
:1045900040F0700030800C48807A00F0030018B1C1
:1045A00005A90819FFF7B4FE4846FDF74AFD0020AB
:1045B00012E70146044801600020704701460248A6
:1045C0004160002070470000A809002070B5054632
:1045D0000C4600F0CDF9D02000F074FA00F005FA96
:1045E00018B100F0E3F9012070BD284600F06AFA26
:1045F00000F0FBF9204600F065FA00F0F6F918B17A
:1046000000F0D4F90120EFE700F0D0F90020EBE74B
:1046100070B504460025BC2C01DB012510E0622C9E
:1046200001DB02250CE02A2C01DB032508E0142C19
:1046300001DB042504E00A2C01DB052500E006254A
:1046400029461A20FFF7C2FF70BD70B50446B4F5C5
:104650007A7F01DD4FF47A74042C00DA04244FF4DD
:104660007A7090FBF4F0401EC5B229461920FFF77E
:10467000ADFF0546264604EBD671C1F34F00FFF7A8
:10468000C7FF70BD70B5044600F072F9D02000F08D
:1046900019FA00F0AAF9204600F014FA00F0A5F982
:1046A00000F066F9D12000F00DFA00F09EF900202C
:1046B00000F031FA054600F079F9284670BD10B5D2
:1046C0000446E006010E1C20FFF780FF10BD10B568
:1046D0000446E006010E1B20FFF778FF10BD10B561
:1046E00000F02DF980216B20FFF770FF642000F0AF
:1046F00058FB00216B20FFF769FF0320FFF7E7FF5E
:104700000020FFF7DCFF3220FFF79FFF0021382059
:10471000FFF75CFF00216A20FFF758FF00212320EC
:10472000FFF754FF80213720FFF750FF7520FFF778
:10473000A9FF0446682C0BD101216B20FFF746FF2F
:1047400000216C20FFF742FF3220FFF77EFF01E0DF
:10475000012010BD0020FCE72DE9F04106460F4680
:1047600014461D4600F004F9002141EA4601C8B292
:1047700000F0A8F900F039F920B100F017F9012094
:10478000BDE8F081384600F09DF900F02EF900F008
:10479000EFF8012101EB4601C8B200F093F900F0F7
:1047A00024F90DE0012C04D1002000F0B4F92870A8
:1047B00003E0012000F0AFF92870601EC4B26D1C48
:1047C000002CEFD100F0F2F80020D9E72DE9F84FE6
:1047D0006B46022241216820FFF7BEFF9DF80100D1
:1047E0009DF8001040EA01200FFA80FA504604F0CC
:1047F000D5FF804600224B4B04F078FE06464A4A1D
:104800004A4B04F0C3FD044604F08EFD834648493C
:10481000584605F0E1FC044605F042FC00B2BDE854
:10482000F88F2DE9FC4104460D4616466B460622DC
:1048300043216820FFF790FF0746BFB99DF80100AC
:104840009DF8001040EA012000B220809DF803008E
:104850009DF8021040EA012000B228809DF8050072
:104860009DF8041040EA012000B230803846BDE8CF
:10487000FC812DE9FC4104460D4616466B46062296
:104880003B216820FFF768FF0746BFB99DF801008C
:104890009DF8001040EA012000B220809DF803003E
:1048A0009DF8021040EA012000B228809DF8050022
:1048B0009DF8041040EA012000B230803846BDE87F
:1048C000FC812DE9F04105460E461746984600F05A
:1048D0004FF8002141EA4501C8B200F0F3F800F0BA
:1048E00084F820B100F062F80120BDE8F081304684
:1048F00000F0E8F800F079F800240CE018F8040063
:1049000000F0E0F800F071F818B100F04FF8012065
:10491000EBE7601CC4B2BC42F0DB00F047F80020BB
:10492000E3E7000000407540A4703D0AD7434240D1
:104930000000C84210B5022000F010FA10BD08B502
:104940000121102001F0D0FA4FF4C050ADF8000062
:1049500010208DF8030003208DF802006946864878
:1049600001F006F84FF4C051834801F0AEF808BDDD
:1049700010B58148406820F470407F49486008467F
:10498000406840F44050486001207C4908607C4900
:10499000C1F8B001FFF7CEFF002078490860FFF7AB
:1049A000C9FF00207649C1F8B00110BD10B57248AA
:1049B000406820F47040704948600846406840F400
:1049C0004050486000206D49091D08606C49C1F8DD
:1049D000AC01FFF7AFFF01206849091D0860684975
:1049E000C1F8AC01FFF7A6FF10BD10B50024624866
:1049F000406820F47040604948600846406840F4D0
:104A00000040486001205D490860FFF793FF0120E6
:104A10005B49C1F8B001FFF78DFF07E0601CC4B22D
:104A2000FA2C03DDFFF7C2FF012010BD5348803888
:104A300000680028F2D15149091D086000BFF4E761
:104A400010B500204D49091D08604B48406820F40E
:104A50007040494948600846406840F4405048600A
:104A600000204749C1F8AC01FFF764FF012043492A
:104A7000091D0860FFF75EFF00204149C1F8B00141
:104A800010BD10B500203D49091D08603A48406836
:104A900020F47040384948600846406840F440506F
:104AA000486001203649C1F8AC01FFF743FF0120FF
:104AB0003249091D0860FFF73DFF00203049C1F869
:104AC000B00110BD70B504462B48406820F470401A
:104AD000294948600846406840F44050486000203A
:104AE0002649091D0860002512E0E00923490860F5
:104AF0006006040E01202249C1F8B001FFF71AFF39
:104B000000201E49091D0860FFF714FF681CC5B28C
:104B1000082DEADB70BD70B50546002416484068D4
:104B200020F47040144948600846406840F4004052
:104B30004860002615E000201049091D0860FFF7B5
:104B4000F9FE01200E49C1F8B0016006040E0B48C1
:104B50008038006808B1601CC4B2FFF7EBFE701C1F
:104B6000C6B2082EE7DB15B9FFF78BFF01E0FFF7B0
:104B700067FF204670BD000000100140AC012242DA
:104B80000000224200BF4F49098801F0400100297E
:104B9000F9D04C49091D0880704770472DE9F04F46
:104BA00086B004460D460FAE96E8C00F200A8DF879
:104BB0000000E0B28DF80100280A8DF80200E8B28A
:104BC0008DF80300100A8DF80400D0B28DF80500AE
:104BD000180A8DF80600D8B28DF80700300A8DF853
:104BE0000800F0B28DF80900380A8DF80A00F8B212
:104BF0008DF80B004FEA18208DF80C0008F0FF002C
:104C00008DF80D004FEA19208DF80E0009F0FF0015
:104C10008DF80F004FEA1A208DF810000AF0FF00FF
:104C20008DF811004FEA1B208DF812000BF0FF00E9
:104C30008DF813001598000A8DF814001598C0B26D
:104C40008DF8150016216846FFF7A7FF06B0BDE8EE
:104C5000F08F2DE9FF4104460D46DDE90B780A9EF1
:104C6000200A8DF80000E0B28DF80100280A8DF8C6
:104C70000200E8B28DF80300100A8DF80400D0B2EB
:104C80008DF80500180A8DF80600D8B28DF80700D7
:104C9000300A8DF80800F0B28DF80900380A8DF856
:104CA0000A00F8B28DF80B004FEA18208DF80C00BE
:104CB00008F0FF008DF80D000E216846FFF76DFF2C
:104CC000BDE8FF810038014008B50121102001F046
:104CD0000BF94FF40050ADF8000014208DF80300DC
:104CE00003208DF802006946044800F041FE4FF4AD
:104CF0000051024800F0E9FE08BD0000001001402C
:104D000010B501F098FC01F0DCFD01F0AFFC10BD26
:104D100010B56FF0040000F05AFA314800683149CC
:104D2000B0FBF1F0304908702D4800682D49B0FB08
:104D3000F1F441F28830444305202C4908804FF0BB
:104D4000E020006940F002004FF0E02108610846D1
:104D50004461006940F00100086110BD70B5034670
:104D600000224FF0E02675691F4E367803FB06F4EB
:104D700000BF4FF0E026B16910E04FF0E026B069C7
:104D800088420BD0884202D20E1A324402E02E1A18
:104D90000E4432440146A24200D300E0EDE700BFDA
:104DA00070BD70B5044612480078012811D10F4833
:104DB0000088844206DB0D48008894FBF0F5284605
:104DC00003F01EFA0948008894FBF0F100FB114043
:104DD00084B24FF47A7104FB01F0FFF7BFFF70BD9E
:104DE000A400002000127A00960000209800002005
:104DF000F200002010B54FF4A06000F099F910BD4A
:104E0000014600BF704700BF4D4A128802F04002C1
:104E1000002AF9D0C2B24A4B1B1D1A80704710B548
:104E200086B00446012144F2040001F05DF84448D4
:104E300001F0BEF84FF40070ADF8140003208DF8B7
:104E4000160018208DF8170005A93E4800F090FDC7
:104E50004FF48060ADF8140004208DF8170005A908
:104E6000384800F085FD25208DF8000003208DF8DE
:104E700001008DF8020001208DF80300684600F063
:104E80005CF901940020ADF80800ADF80A00ADF817
:104E90000C00ADF810000C20ADF80E0001A9284858
:104EA00001F0C9F8012240F22551254801F05BF9D3
:104EB0000121234801F04BF906B010BD10B501F0F7
:104EC000BAFB40F225511E4801F032FA10B31C48DB
:104ED00001F0AEF9C4B21C48008800F40040C8B923
:104EE0001948008800F4804060B10A2C03D00020EB
:104EF0001549088020E01448008840F40040124919
:104F0000088019E00D2C06D10F48008840F480403D
:104F10000D49088010E00C480088C0F30D000B49D3
:104F20000C5409480088401C07490880084600883E
:104F3000C72801DD0020088001F098FB10BD0000AB
:104F40000038014000080140A0000020B8090020FE
:104F50000CB50020019000906C48006840F480304F
:104F60006A49086000BF6948006800F4003000909A
:104F70000198401C0190009818B90198B0F5A06FF5
:104F8000F1D16248006800F4003010B101200090B7
:104F900001E0002000900098012843D15C4800689F
:104FA00040F010005A4908600846006820F00300ED
:104FB00008600846006840F00200086053484068F6
:104FC000524948600846406848600846406840F4D6
:104FD000806048600846406820F47C1048600846BD
:104FE000406840F4E81048600846006840F080706F
:104FF000086000BF4548006800F000700028F9D044
:105000004248406820F00300404948600846406834
:1050100040F00200486000BF3C48406800F00C00CF
:105020000828F9D10CBD10B5FFF792FF10BD10B5DF
:105030003648006840F0010034490860084640687E
:105040003449084031494860084600683249084000
:105050002E4908600846006820F480200860084651
:10506000406820F4FE0048604FF41F008860FFF79E
:10507000DAFF4FF000602949086010BD10B500212B
:1050800000200022214B5B6803F00C0121B10429B0
:1050900006D0082928D107E0214B224C236027E0C5
:1050A0001F4B204C236023E0184B5B6803F4701007
:1050B000164B5B6803F48032022303EB904022B965
:1050C000194B4343174C23600DE0104B5B6803F40E
:1050D000003323B1144B4343124C236003E0104BC5
:1050E0004343104C236003E00D4B0E4C236000BF84
:1050F00000BF064B5B68C3F303130C4CE15C094B28
:105100001B68CB40074C236010BD0000001002401C
:10511000002002400000FFF8FFFFF6FE08ED00E06F
:1051200000127A00A400002000093D00A800002021
:1051300031490143314A1160704770B500210023A5
:105140000F22C47804B32D4C246804F4E064C4F541
:10515000E064210AC1F10403CA40447804FA03F16F
:105160008478144021430901254C0678A155047820
:1051700004F01F050124AC4005786D11AD0005F168
:10518000E025C5F8004109E0047804F01F0501247A
:10519000AC401C4D0678761145F8264070BD1A4A81
:1051A0000A400243154B1B1F1A60704739B1134A5E
:1051B000121D12680243114B1B1D1A6006E00F4AB4
:1051C000121D126882430D4B1B1D1A607047042884
:1051D00008D14FF0E021096941F004014FF0E022CD
:1051E000116107E04FF0E021096921F004014FF05F
:1051F000E0221161704700000000FA050CED00E0AC
:1052000000E400E080E100E080FFFF1F10B50446ED
:10521000FA48844208D10121401500F07FFE0021A8
:10522000601500F07BFE17E0F548844208D10121AB
:10523000001500F073FE0021201500F06FFE0BE05A
:10524000F048844208D10121C80300F067FE002124
:105250004FF4004000F062FE10BD30B50246002061
:1052600000235068E84C20400D790C6844EA05247E
:10527000204350609068E54C2040D1E902542C4313
:105280004D7944EA450420439060D06A20F47000D0
:105290000C7C641EE4B2234340EA0350D06230BD6C
:1052A00000210160017141718160C16001210174BF
:1052B000704721B1826842F00102826003E0826897
:1052C00022F001028260704721B1826842F480724C
:1052D000826003E0826822F480728260704710B5B9
:1052E0000023CBB21AB144681C43446002E0446816
:1052F0009C43446010BD816841F0080181607047A3
:10530000014600208A6802F008020AB1012000E08C
:1053100000207047816841F00401816070470146B8
:1053200000208A6802F004020AB1012000E0002097
:10533000704721B1826842F4A002826003E0826873
:1053400022F4A00282607047014600208A6802F4BD
:1053500080020AB1012000E00020704710B50A4623
:1053600000210023416821F46041531E41EA43318A
:10537000416010BD21B1426842F40062426003E026
:10538000426822F4006242607047F0B504460D4660
:1053900000200021092D11DDE068A5F10A0606EBC9
:1053A0004607072606FA07F18843A5F10A0606EB29
:1053B000460603FA06F10843E0600CE0206905EBBD
:1053C0004507072606FA07F1884305EB450603FA69
:1053D00006F108432061072A0FDA606B561E06EBC0
:1053E00086071F2606FA07F18843561E06EB860637
:1053F00005FA06F10843606322E00D2A0FDA206BFC
:10540000D61F06EB86071F2606FA07F18843D61F2C
:1054100006EB860605FA06F10843206310E0E06A11
:10542000A2F10D0606EB86071F2606FA07F1884350
:10543000A2F10D0606EB860605FA06F10843E062C6
:10544000F0BD21B1826842F48012826003E082687C
:1054500022F48012826070470146C86C80B27047A7
:1054600066484C300068704721B1426842F480625F
:10547000426003E0426822F480624260704721B1DA
:10548000426842F48052426003E0426822F4805253
:10549000426070470A460021816821F4E0411143CF
:1054A0008160704721B1826842F40042826003E06B
:1054B000826822F400428260704721B1826842F41F
:1054C0000212826003E0826822F402128260704756
:1054D000014600208A6802F400120AB1012000E0AF
:1054E00000207047F0B50446154600200022002633
:1054F000092911DDE068A1F10A0707EB470C07272E
:1055000007FA0CF29043A1F10A0707EB470703FAE9
:1055100007F21043E0600CE0206901EB410C072723
:1055200007FA0CF2904301EB410703FA07F210432C
:105530002061A06BC0F30156EF1C06F1010CA7EB34
:105540000C0707EB870C1F2707FA0CF29043EF1CA0
:1055500006F1010CA7EB0C0707EB870701FA07F22E
:105560001043A063F0BD10B50A4600210023816BF3
:1055700021F44011531E41EA0351816310BD08B567
:10558000002300930090009B0B440093009B1A6043
:1055900008BD08B5024600200090009201F12800E5
:1055A000009B184400900098006880B208BD0A462D
:1055B00000214168164B1940114341607047416218
:1055C000826270470A460021416821F01F011143A1
:1055D0004160704740B109490831096841F4000150
:1055E000064A0832116007E004490831096821F4CD
:1055F0000001024A08321160704700000024014097
:1056000000280140003C0140FFFEF0FFFDF7F1FFE4
:10561000FFFD3FFF0246002013680B400BB1012045
:1056200000E000207047CA430260704770B5024630
:105630000020002300240B125568CEB205EA0604B0
:1056400015681D4015B10CB1012000E0002070BDAF
:1056500000220A12D34303607047000001684FF62E
:10566000FE72114001600021016041608160C160F3
:105670008D49884208D18C490839496841F00F01A9
:10568000894A083A51608AE087491431884208D132
:1056900085490839496841F0F001834A083A516068
:1056A0007DE081492831884208D17F49083949681D
:1056B00041F470617C4A083A516070E07A493C31AB
:1056C000884208D178490839496841F47041764ADE
:1056D000083A516063E074495031884208D17249F8
:1056E0000839496841F470216F4A083A516056E020
:1056F0006D496431884208D16B490839496841F4E1
:105700007001694A083A516049E067497831884236
:1057100008D165490839496841F07061624A083A20
:1057200051603CE06149884206D1011F096841F09F
:105730000F01021F116032E05C491431884208D128
:105740005A49091F096841F0F001584A121F1160B7
:1057500025E056492831884208D15449091F096873
:1057600041F47061514A121F116018E04F493C31F9
:10577000884208D14D49091F096841F470414B4ADC
:10578000121F11600BE049495031884207D1474947
:10579000091F096841F47021444A121F11607047C3
:1057A00010B50022026847F6F0739A430C6A8B68C2
:1057B00023430C6923434C6923438C692343CC69FD
:1057C00023434C6A23438C6A23431A430260CB6809
:1057D00043600B6883604B68C36010BD00210160AB
:1057E00041608160C160016141618161C1610162AB
:1057F00041628162704721B1026842F00102026099
:1058000004E002684FF6FE731A40026070471AB156
:1058100003680B43036002E003688B430360704737
:10582000416070470146486880B2704701460020D9
:10583000002201F080531BB11C4B083B1A6802E0A8
:10584000194B083B1A6802EA01030BB1012000E082
:105850000020704700F0805119B11449091F0860F9
:1058600002E01149083948607047014600200022D3
:1058700001F080531BB10D4B083B1A6802E00A4B44
:10588000083B1A6802EA01030BB1012000E0002086
:10589000704700F0805119B10449091F086002E007
:1058A0000149083948607047080002400804024076
:1058B00010B50446CC48844208D10121042000F0F0
:1058C0002DFB0021042000F029FB46E0C74884425C
:1058D00008D10121082000F021FB0021082000F060
:1058E0001DFB3AE0C248844208D10121102000F09B
:1058F00015FB0021102000F011FB2EE0BD48844272
:1059000008D10121202000F009FB0021202000F017
:1059100005FB22E0B848844208D10121402000F074
:10592000FDFA0021402000F0F9FA16E0B348844265
:1059300008D10121802000F0F1FA0021802000F040
:10594000EDFA0AE0AE48844207D10121801500F04B
:10595000E5FA0021A01500F0E1FA10BD10B5012113
:10596000084600F0DBFA0021012000F0D7FA10BD54
:105970002DE9F041024600250026002000230024E6
:10598000002791F803C00CF00F0591F803C00CF04C
:10599000100CBCF1000F03D091F802C04CEA0505D1
:1059A00091F800C0BCF1000F31D0146800202BE04A
:1059B0004FF0010C0CFA00F3B1F800C00CEA03063A
:1059C0009E4220D183004FF00F0C0CFA03F7BC432A
:1059D00005FA03FC4CEA040491F803C0BCF1280F5B
:1059E00006D14FF0010C0CFA00FCC2F814C00AE01A
:1059F00091F803C0BCF1480F05D14FF0010C0CFA2F
:105A000000FCC2F810C0401C0828D1D31460B1F8C3
:105A100000C0BCF1FF0F34DD546800202EE000F11F
:105A2000080C4FF0010808FA0CF3B1F800C00CEABA
:105A300003069E4221D183004FF00F0C0CFA03F7AE
:105A4000BC4305FA03FC4CEA040491F803C0BCF122
:105A5000280F05D100F1080C08FA0CF8C2F81480E0
:105A600091F803C0BCF1480F07D100F1080C4FF0CA
:105A7000010808FA0CF8C2F81080401C0828CED3A0
:105A80005460BDE8F0814FF6FF7101800221817002
:105A90000421C17070470246002093680B400BB18F
:105AA000012000E0002070470146886880B27047FE
:105AB00002460020D3680B400BB1012000E000201B
:105AC00070470146C86880B2704701617047416104
:105AD00070470AB1016100E041617047C1607047E1
